:100000000C945C030C9479030C9494030C94790382
:100010000C9479030C9479030C9479030C94790370
:100020000C9479030C9479030C94AB1A0C94790317
:100030000C9479030C9479030C9479030C94790350
:100040000C9479030C9479030C9479030C94790340
:100050000C947903DE05E105E405EE05F1050206E1
:100060000C061C0683068D069F063E065706520A9E
:10007000520A850A850AFC0A200C200C200C1A0B57
:100080008E0B9F0B9F0B3E1044106A107C10871044
:10009000AC105D115D115D115D115D11AF10B310FC
:1000A000B910E3100A110D111011381100000000F1
:1000B0000000000000000000000000000000000040
:1000C0000000000000000000000000000000000030
:1000D0007E0F00D4FFFFFFC7000000780000000083
:1000E000000000002A2B2800000000000000000093
:1000F0000000000000000029000000002C1E342039
:10010000212224342627252E362D3738271E1F205E
:100110002122232425263333362E37381F040506A3
:100120000708090A0B0C0D0E0F10111213141516E7
:100130001718191A1B1C1D2F3130232D35040506E5
:100140000708090A0B0C0D0E0F10111213141516C7
:100150001718191A1B1C1D2F3130354C00DA12816B
:100160001ED9F1DB20A4A62EAF00A0C000A1C800BC
:10017000AED580A87FD300408D1420000000000081
:1001800000000000000000000000000070FC8E066F
:10019000FFFF0303061EFCE000FFFF0303C3FF3F56
:1001A00003FCDE06FFFF0303070EFCF00000000067
:1001B000000000000000000000000000000000003F
:1001C00000000000000000000000000000010333F8
:1001D000FFFF76F3F09E0F0300E3FF1C1C1C0901D8
:1001E00000010303FFFF06020000FFFF0000000004
:1001F00000000000000000000000000060E0E000DF
:100200000020E0E000E0E060606060E0E02080C4AA
:10021000E7E7E06063C7C684000787C6E6E6E666F0
:1002200066C0C00407E7E626C6E763E0C00000003A
:1002300020E0E00080C0E0606060C08000FFFF6000
:100240006060FFFF003FFFC080803F3F000F3F71B5
:10025000FFFFC0C02000FFFF001F3F71FFFFC0C0B5
:100260000000FFFF00FFFF00000307FFFF38F0C0A2
:1002700080FFFF00FFFF000008CCCFC7C0FFFF00DA
:10028000048CFFFF01F8FEC7C3C3C1C0C00000005B
:10029000FFFF8E0E1E7FF3C180000000FFFF8E0E59
:1002A0001E7FE38000FFFF80000000FFFF80000151
:1002B0008FFFFF003F7FE0C0C0FFFF800000000015
:1002C000000000000000000000000000000000002E
:1002D00000000000C38C1860C00000000000000097
:1002E000000000000000000000000000000000000E
:1002F00000000000000000000000000000000000FE
:1003000000000000000000000000000000000000ED
:100310000000C0C8F08186F88003EC1800000000DF
:1003200000F0000000E01E00008078070000F01FD1
:100330000000000007788000011EE000000EFEFEB5
:10034000FCFCF870706060C080800000000000005D
:1003500000243F878F7F0F1FFF1F1F1F0F0808F804
:100360001F1010F03E2120A078474040F09F808071
:1003700080808080808087F8C040415EE020202F10
:10038000FFFFF8F0F0F0F0FDFFFF3F1E80C04424B7
:1003900022131908040402030100000000000F00EA
:1003A00000E01E01008078070000F00F0100C03C53
:1003B000030000011FF0000007788000011EE0002C
:1003C000000FFFFFFF7F1F0F030000000000000071
:1003D000000000000000000000000000000000001D
:1003E0000001000008070000701F0100C03C03006E
:1003F0000000000000011FF0000007780000010E5F
:1004000000000001000000000000000000000000EB
:1004100000000000000000000000000000AE3A00F4
:100420003B003C003D003E003F00400041004200D8
:1004300043004400450046004700A80035001E0068
:100440001F00200021002200230024002500260098
:1004500027002D002E0031002A002B0014001A0066
:100460000800150017001C0018000C0012001300F3
:100470002F00300031004A00390004001600070048
:1004800009000A000B000D000E000F0033003400BD
:1004900028004B004E00E1001D001B000600190063
:1004A000050011001000360037003800E500E500B7
:1004B0005200E100E000E300E20076002C00015170
:1004C00001512C00E600E700E400500051004F000D
:1004D00029000100010001000100010001000100EC
:1004E0000100010001000100010001000100E85CC1
:1004F00001000100010001000100010001000100F4
:1005000001000100010001000100010001000100E3
:1005100001000100010001000100010001000100D3
:1005200001000100010001000100010001000100C3
:1005300001000100010001000100010001000100B3
:1005400001000100010001000100010001000100A3
:100550000100010001000100010001000100010093
:100560000100010001000100010001000100010083
:100570000100010001000100010001000100010073
:1005800001000100005C05010980A101850319013A
:100590002AB700150126B700950175108100C00526
:1005A0000C0901A101850419012AA002150126A048
:1005B00002950175108100C00660FF0961A1010963
:1005C00062150026FF009520750881020963150059
:1005D00026FF00952075089102C005010906A101BA
:1005E000050719E029E71500250195087501810225
:1005F0009501750881030507190029FF150026FFDD
:1006000000950675088100050819012905950575ED
:10061000019102950175039103C0160372006500F4
:100620006400680065007200720069006E00670077
:10063000000010036400630070006500640069003E
:10064000740000000403090409025B00030100A018
:10065000FA09040000010301010009210101000160
:10066000224000070581030800010904010002037C
:100670000000000921010100012222000705840376
:100680000800010705040308000109040200010332
:100690000000000921010100012232000705830347
:1006A00008000112011001000000089EDCED12019B
:1006B000000102000100AF0011241FBECFE5D8E009
:1006C000DEBFCDBF10E0A0E6B0E0E2E6F1E402C09C
:1006D00005900D92AC3DB107D9F726E0ACEDB0E046
:1006E00001C01D92A23EB207E1F70E94770C0C9464
:1006F000AF200C940000A82FB92F80E090E041E0DB
:1007000050EA609530E009C02D9182279795879532
:1007100010F084279527305EC8F36F5FA8F3089523
:10072000EADF8D939D930895CF93CFB7CF93DF9357
:10073000C395839BE9F7839B10C0839B0EC0839B6B
:100740000CC0839B0AC0839B08C0839B06C0C091DA
:100750009706C395C09397068EC06F93C091BD0650
:10076000DD27C054D94F2F9365E5839B03C02F919C
:100770006F91E1CF0F931F934F9320E040E15F9380
:1007800000B30C7003FB27F93F9350E03BE039C006
:100790001C7040642F77012F5F5F1EC0406810B34C
:1007A0001C702F7752501FC0406400B32F770C701D
:1007B000D1F15F5F00C023C0406210B32F771C707F
:1007C00091F15F5F00C025C00C701027515012F4EA
:1007D0005D5F0000115027952C3F10B3C8F61C70C8
:1007E0000127015027952C3FC8F64227499300B3B3
:1007F0000C7010274F73115027952C3FA8F6469583
:10080000469510B31C7079F00127015027952C3FB5
:1008100098F66B5A60F3315000B3B0F600C010E8A0
:100820001ABF00271CC03B503195C31BD04010E8B5
:100830001ABF0881033C21F10B3411F12091BB0652
:100840001981110F1213EDCF4A81441F093679F136
:100850000D3211F0013E29F74F7009F0042F00937B
:1008600096063F915F914F911F910F912F916F913C
:10087000CAB7C7FD5DCFDF91CF91CFBFCF9118959C
:1008800020919606222369F31091BE06112309F0E8
:1008900049C034300AF448C03093BE062093BC06E9
:1008A0001091BD063BE0311B3093BD063DC0009169
:1008B000BE060130BCF50AE54F7049F43091750071
:1008C00034FD33C000937500C8E9D6E032C0433030
:1008D00059F0443091F03091A30634FD26C00093C6
:1008E000A306C4EAD6E025C03091D60634FD1DC06B
:1008F0000093D606C7EDD6E01CC03091AF0634FD9C
:1009000014C00093AF06C0EBD6E013C0052710E07B
:1009100000C0000002BB1AC0052710E0221F1DC046
:1009200010E021C04AE502C032ED432FC4E1D0E01F
:1009300032E011B31C60939A02B311BB5CE020E873
:1009400065E320FF052702BB279517951C3FF0F6AE
:100950006695B8F7B1F720FF052702BB27951795D5
:100960001C3FD0F62795179517FF052700001C3F61
:1009700002BBB0F629913A9519F7037F1091BF0693
:10098000110FC651D04002BB11F01093BB0610E806
:100990001ABF086011B3137F402F437F54E05A956C
:1009A000F1F702BB11BB42BB5CCF1F93CF93DF9328
:1009B000CDB7DEB767970FB6F894DEBF0FBECDBFD9
:1009C0004B8B5C8B6D8B7E8B8F8B611110929101A9
:1009D00086E09E01235F3F4FD901E82F1D92EA95E3
:1009E000E9F795E0FE017396D90101900D929A9571
:1009F000E1F79C894E895F897B897D879E876F8718
:100A0000598B488BF901DE01179601900D928A955A
:100A1000E1F7CE0107960E940B1581113EC086E0DA
:100A2000FE013796DE01119601900D928A95E1F74D
:100A3000FF81E8856A857B856115710531F0EF3F9F
:100A400031F481E0FF3F19F403C081E001C080E090
:100A500080FD23C020915E0130E0C90101968770BE
:100A6000992740918F0150E08417950779F1F98318
:100A7000EA837D836C8396E0929FD001939FB00DB3
:100A80001124A15ABE4FFE01319601900D929A9504
:100A9000E1F780935E010E94881416E080918F0137
:100AA00090915E018917F9F0189FC0011124815AB5
:100AB0009E4F0E940B158823B1F080918F0190E02A
:100AC00001968770992780938F01E8CF0E94691D56
:100AD00010925E0110928F01E8E5F1E086E0DF01FF
:100AE0001D928A95E9F767960FB6F894DEBF0FBEA0
:100AF000CDBFDF91CF911F91089581FF02C0D89A99
:100B00000895D89808953F924F925F926F927F9286
:100B10008F929F92AF92BF92CF92DF92EF92FF920D
:100B20000F931F93CF93DF93CDB7DEB729970FB6FF
:100B3000F894DEBF0FBECDBFFC018081918123817F
:100B40003481232B31F09F3F31F491E08F3F19F432
:100B500003C091E001C090E090FDB1C67F0185E047
:100B6000DE01119601900D928A95E1F7F70122813D
:100B700089819A81222349F00E94A41C182F682F92
:100B800089819A810E94FF1C03C00E94D31C182FE8
:100B900069817A81812F0E94711C8C01F701828109
:100BA000882309F4FAC0F801E65EFC45ED30F10552
:100BB00008F0F3C0E65DFF4F0C9495200E94F81BEF
:100BC000ECC00E94E91BE9C080919A0180FF03C03C
:100BD0000E94E91BD8C00E94F81BD5C00E94CA1B06
:100BE000DCC090919A01892F86958F5F8370997FE1
:100BF000833029F0880F892B80939A01C4C0909389
:100C00009A01C1C080919B0182FB222720F991E0CB
:100C1000922790FB82F92FC030919A01932F9695DD
:100C20009695969520919B01822F83708295880FCF
:100C3000807E892B8F5F0FC030919A01932F9695FC
:100C40009695969520919B01822F83708295880FAF
:100C5000807E892B8150982F990F990F990F3770AB
:100C6000392B30939A01829586958770982F9370CF
:100C7000822F8C7F892B80939B0185C080919B0163
:100C8000982F96959695969580919C018370829564
:100C9000880F807E892B90E0843691052CF4019694
:100CA00085369105CCF016C084E090E015C08091A7
:100CB0009B01982F96959695969580919C018370AF
:100CC0008295880F807E892B90E08530910514F005
:100CD000019702C084E690E080937300382F330FB1
:100CE000330F330F20919B012770232B20939B01FF
:100CF00045E0969587954A95E1F7837090919C0120
:100D00009C7F892B07C080919C0182FF02C08B7F52
:100D100001C0846080939C0136C080919C01982F13
:100D200096959695969580919D018295880F807EE7
:100D3000892B883710F4865F13C088E711C0809133
:100D40009C01982F96959695969580919D018295F8
:100D5000880F807E892B843110F08A5001C084E195
:100D6000282F220F220F220F90919C019770922B17
:100D700090939C0182958695877090919D01987FB4
:100D8000892B80939D0160919A0170919B018091C4
:100D90009C0190919D010E94911380919A0180FF86
:100DA0000DC0F701928186958370992329F08230D6
:100DB00028F40E94041F02C08111FBCFF701828139
:100DC000882309F4F2C0980122513F4520313105B2
:100DD00008F01DC18FEF93E00E943A208111EFC00F
:100DE00002513FE8832E99249394002379F08114D3
:100DF000F4E09F0609F4E3C0C4010E943A20811187
:100E000001C001502FEF821A920AEFCF1E821F827B
:100E100018861986442443942AE0322E84010F5FF9
:100E20001F4FC4010E943A208E831F82882309F439
:100E3000C6C09FEF980F933060F48F834E8232E0EC
:100E4000830E911CC8010E943A208887811102C03C
:100E5000B6C048018E010A5F1F4FF801208122238E
:100E6000E9F2213009F04CC08181813049F46801F8
:100E7000F2E0CF0ED11CF80182810E94781E0AC0D8
:100E8000823051F46801F2E0CF0ED11CF80182816A
:100E90000E94DC1D860186C0833049F46801F2E0BF
:100EA000CF0ED11CF80182810E94851DF3CF8430C2
:100EB00019F00F5F1F4F76C0F80122810E5F1F4FA0
:100EC00080E090E030E0205331092A30310568F4A9
:100ED000389EA001399E500D1124C901840F951F21
:100EE0000F5F1F4FF8012081EDCF009709F45AC022
:100EF000EFE9FFE03197F1F700C000000197F5CF6F
:100F0000E22FF0E0E452FF4F5490822F86958695B1
:100F1000869590E0FC01E453FF4F64902770712C9C
:100F2000022E02C0759467940A94E2F7F1E06F22F2
:100F30007724FC01E454FF4FA490B12C022E02C090
:100F4000B594A7940A94E2F731E0A322BB24FC01F4
:100F5000E455FF4FC490D12C02C0D594C7942A9574
:100F6000E2F781E0C822DD246114710419F081EEFA
:100F70000E94DC1DA114B10419F086EE0E94DC1D54
:100F8000852D0E94781EAB2819F086EE0E94851DE3
:100F9000672819F081EE0E94851DCD2819F08CE29A
:100FA0000E94781E0F5F1F4F58CF00313FE5130797
:100FB00009F07CC481E00E942E1D0E94651880917A
:100FC0009001877009F47BC4F7018281882309F4BA
:100FD00076C48091EC0082FD72C482E029960FB63F
:100FE000F894DEBF0FBECDBFDF91CF911F910F915F
:100FF000FF90EF90DF90CF90BF90AF909F908F9039
:101000007F906F905F904F903F900C944E14003102
:10101000FFE51F0711F481E005C001312FE512073C
:1010200021F482E00E943A1DC8CF033FFCE51F0770
:1010300099F406E221EE40EE63EF7CE509C0073D3E
:10104000ECE51E0711F506E221EE41EE67ED7CE5C9
:10105000C7010E94571BB3CF043F2CE5120708F0CD
:101060005CC1083D3CE5130731F407E225EE45EE8F
:1010700068ED7CE5EDCF093D9CE5190701F708E235
:1010800021E045EE69ED7CE5E3CF882309F47AC1E0
:101090001092A00103309DE5190758F40A3FECE5D2
:1010A0001E0780F4C80182509C45449708F054C143
:1010B00009C00136FDE51F0729F0053A2DE51207A5
:1010C00009F04AC10E9497139093EC008093EB00C3
:1010D00001313CE5130709F4C6C008F042C00930ED
:1010E0009CE5190709F49BC000F50530FCE51F07D6
:1010F00009F485C078F403303CE5130709F478C09F
:1011000008F07AC002301C4509F0F7C08091EB006E
:101110008160F1C00730ECE51E0709F478C008F0E3
:101120007AC08091EB008061E6C00D302CE512079B
:1011300009F487C058F40B308CE5180709F479C01E
:1011400008F07BC08091EB0088606FC00F30ECE549
:101150001E0709F480C008F082C08091EB00877FF1
:10116000CAC00D3F2CE5120709F471C000F5053126
:101170008CE5180709F485C068F40331ECE51E0717
:1011800009F475C008F095C00E94691D8091EB00BC
:101190008F77B1C00B3F2CE51207A9F108F054C0BE
:1011A0000A3F1C4509F0A9C08091EC0040C0013005
:1011B0009DE5190709F489C058F40F3FFCE51F07A6
:1011C00009F45AC008F069C08091EC0082602FC019
:1011D00001363DE5130709F47EC0053A8DE5180791
:1011E00009F483C002301D4509F087C060E06EC07D
:1011F0008091EB0082607FC08091EB0016C08091EF
:10120000EB00886078C08091EC0082604FC08091D4
:10121000EB00806270C08091EB0080646CC00E9423
:10122000691D8091EB00806866C0846064C0816045
:101230003DC08091EB008E7F5EC08091EB008D7F82
:101240005AC08091EB0016C08091EC0018C08091CC
:10125000EC008D7F2BC08091EB008F7E4CC0809185
:10126000EB008F7D48C08091EB008F7B44C0809164
:10127000EB00877F8B7F3FC08091EC008D7F8E7F5E
:1012800015C08091EB0082FB222720F991E0922784
:1012900090FB82F990FB83F92EC08091EC00982F8F
:1012A000909591708E7F892B90FB81F98093EC0053
:1012B00024C00E94691D8091EB0087FB222720F942
:1012C00091E0922790FB87F916C061E08EE090E0F4
:1012D0000E944E2012C08091EB0084FB222720F94F
:1012E00091E0922790FB84F906C08091EB00982F43
:1012F000909590FB80F98093EB006091EB0010914A
:10130000EC0084E090E00E944E20612F82E290E0A9
:101310000E944E200E94691D52CE053FFCE51F072A
:1013200031F406E221EE42EE65EF7CE591CE053F19
:101330002CE5120730F407E225EE44EE64EF7CE57D
:1013400087CE063F3CE5130709F09FCE07E225EE66
:1013500046EE66EF7CE57CCE06318CE5180719F584
:10136000809192018A7A91E009F490E09093DE00F6
:10137000882311F065E301C069E280E591E00E94F5
:10138000051B0EC006311C4509F03FC08091DE00F0
:10139000882309F492C265E380E591E00E94F81A7F
:1013A0000E9425140CCE0A35EDE51E0749F150F4D4
:1013B00001152CE51207A9F00E3D1C4531F50E94E0
:1013C000B313FDCD0B358DE51807E1F00C351D4548
:1013D000E1F48091EC0082FB882780F991E0892775
:1013E00012C00E94691DEFEFF4E32CE0E150F040E1
:1013F0002040E1F700C00000C5980E94981ADFCD98
:1014000081E001C080E00E946B14F70182810081BD
:101410001181882349F0C8010E94A41CD82E682F8E
:10142000C8010E94FF1C04C0C8010E94D31CD82E12
:10143000B8018D2D0E94711C0E940812B82E192F20
:10144000982EF7010281A580A2949FE0A9228091A5
:1014500090018770B9F00023A9F0812F807F80343C
:1014600021F080E28B0D883068F08091EC0082FDE5
:1014700009C082E00E944E14809190018770DD24A3
:10148000D3948111D12CC12EC2948FE0C8228C2D0F
:1014900090E08C30910508F0D3C1FC01E95CFF4F6E
:1014A0000C949520812F807F1F70882311F0129556
:1014B000107F0023B9F0112309F4ABC180E28B0D3A
:1014C000883010F0911006C080919201182B109373
:1014D000920105C080919101182B109391010E94F7
:1014E000251497C18B2D0E94851D112309F4A8C1D5
:1014F00080E28B0D883080F1992071F110958091F8
:1015000091011823109391012AC0812F807F1F70B1
:10151000803211F01295107F8B2D992021F0F1E08F
:101520009F16D9F149C08091EC0082FF1BC00023B7
:1015300069F0112339F080919201182B10939201D8
:101540000E94251480E00E94DC1D7AC180E00E9488
:10155000851D112309F474C1812F0E941E140E945D
:1015600025146EC1002381F080919301AA2051F0CF
:1015700021E0A21207C0182B181709F461C11093BB
:1015800093015EC1812B10C0AA2021F031E0A31687
:1015900009F456C10E9418142BC0002341F085E0C5
:1015A0008A1508F44DC1812F0E947B1D49C194E02A
:1015B0009A1508F445C11CC0002349F0AA2099F3EC
:1015C000F701858180FF25C18F708583ECCFAA202C
:1015D00079F0893341F4FFEF27EE33E0F1502040FA
:1015E0003040E1F728C18FE39CE90197F1F723C16F
:1015F000812F0E94741D24C1812F8695869583704A
:1016000019F0813061F01CC1002321F08B2D912F46
:10161000937002C080E090E00E94351B19C1002346
:1016200021F08B2D912F937002C080E090E00E94FA
:101630001F1B0EC1812F8370A9F5011105C14B2D10
:10164000429546954770440F440F8B2D8F7090E064
:101650009C01042E01C0220F0A94EAF7B4FE08C0D0
:101660008FE090E001C0880F4A95EAF7809501C0AD
:1016700080E0169516951370123069F088F49091F9
:101680009401113019F0822B892302C0922B892BEF
:101690000E94451DD9C0822B909194018927F8CFD3
:1016A000822BF6CF002319F0812F817001C086951F
:1016B000882309F4C9C04B2D429546954770440FC5
:1016C000440F8B2D8F7090E09C01042E01C0220FDF
:1016D0000A94EAF7B4FE08C08FE090E001C0880FDA
:1016E0004A95EAF7809501C080E01695169513702B
:1016F000123059F078F490916502113019F0822B74
:10170000892309C0922B892B06C0822B90916502F8
:10171000892701C0822B0E942A1D96C01F700023BA
:1017200039F0812F0E943A1D8B2D0E947B1D8CC0A9
:101730008B2D0E94741D812F0E942E1D85C08B2D24
:1017400092EF991679F1991538F0E0EF9E1659F05D
:10175000F1EF9F1611F159C023EF921651F134EFBA
:101760009316B9F052C0002379F084E08A1508F48A
:1017700067C01F7181E090E001C0880F1A95EAF7F9
:101780009091650289271FC095E09A1508F458C00A
:10179000F0CF8091EC0082FF19C0002329F0812F47
:1017A0008F7126C00023D9F3812F8F710E942E1DC7
:1017B00047C0002339F01F7181E001C0880F1A95DE
:1017C000EAF701C080E00E942A1D3AC0002399F088
:1017D0001F71812F0E943A1D8091EC0082FD07C08D
:1017E000E8E01E9FC0011124836080939001812F47
:1017F0000E943A1D25C081E00E944E14F1E0FA15C6
:10180000F8F482E00E944E141BC0002321F0AA20AD
:1018100031F28B2D98CEAA2039F2893341F42FEF83
:1018200037EE83E0215030408040E1F704C0EFE321
:10183000FCE93197F1F700C000008B2D0E94851D57
:1018400088EF8C0D843020F40E944B1B0E947D0594
:10185000DD20A9F18091900180FD31C0F701128255
:101860008595859585950E943A1DC7010E9483053F
:101870008091900185958595859529960FB6F89468
:10188000DEBF0FBECDBFDF91CF911F910F91FF90B3
:10189000EF90DF90CF90BF90AF909F908F907F9010
:1018A0006F905F904F903F900C942E1D01319FE5FB
:1018B000190709F0BACB82E07ECB69E26DCD29969B
:1018C0000FB6F894DEBF0FBECDBFDF91CF911F9151
:1018D0000F91FF90EF90DF90CF90BF90AF909F90CF
:1018E0008F907F906F905F904F903F900895CF932F
:1018F000DF93CDB7DEB72E970FB6F894DEBF0FBEDD
:10190000CDBF0E94EC1A90934F0180934E0184B793
:10191000806884BF84B7806884BF8CEA91E190932B
:10192000DD008093DC0085B7886085BF8BB7806859
:101930008BBF8BE48093A4068093D7068093B00678
:101940008AE58093A3068093D6068093AF068B9A90
:1019500080E0815041F0A895AFE9BFE01197F1F721
:1019600000C00000F6CF8B9878948BE083BF8AEF9D
:101970008CBF82E089BF0E94EB1E811102C00E94D1
:10198000DC1E06E710E0F80181918F018F3F11F016
:101990000E94F111F0E00C371F07A9F70CE710E0E7
:1019A000D8018D918D018F3F11F00E94F111B0E0AF
:1019B0000B381B07A9F78CE0E1E4F1E0DF01282FE9
:1019C0001D922A95E9F7EFEDF0E0DF011D928A956F
:1019D000E9F70E94A813811102C00E94B31382E0AC
:1019E00090E00E943A208093ED000E94971390931C
:1019F000EC008093EB000E94AC16EFE3FCE931971A
:101A0000F1F700C000000E94AC168091410180FFF8
:101A100008C06FEF7FEF80E090E00E946B200E9493
:101A2000981A83E090E00E943A200E94451DD09AC7
:101A3000D8980E94A813811102C00E94B31388E1B4
:101A400090E00E94422060939A0170939B018093E2
:101A50009C0190939D0120919B01269526952695AA
:101A600030919C0133703295330F307E232B2093BD
:101A70007300672B682B692B11F0211102C00E94A3
:101A8000CA1BC598BD9A0E94041F10923E0180E4B3
:101A90008093FD000E941E1F6DE070E08FE691E0D4
:101AA0000E947018892B09F043C080913E0163E0C9
:101AB00070E081FD3AC08CE691E00E947018892B9D
:101AC000B9F56DE070E08CE591E00E947018892B0B
:101AD00079F50E94E01ADC01CB01805A9541AF4FA5
:101AE000BF4F8093920690939306A0939406B09371
:101AF0009506E8E6F2E080E094E0DF019C011D92AB
:101B000021503040E1F7F0936906E09368068FEFCB
:101B10009FEF909367028093660281E08093990122
:101B20008093980110923F0103C089E691E0C5CFF0
:101B3000A298AA9A8F98979A8FE891E00197F1F767
:101B400000C0000093B320B330E0220F232F221FE8
:101B5000330B232B11F022E001C020E092FB8827F9
:101B600080F9822B8093FC0080E690E09093A401A2
:101B70008093A3019FEFA0E7B2E09150A040B04056
:101B8000E1F700C00000FF24FA9452E0B52E60E4B3
:101B9000662E809197068823A9F0109297060E94DE
:101BA000EC1A90934F0180934E0180914D01882350
:101BB000C1F110924D010E94691D0E944B1B0E94B1
:101BC0007D0514C080914D01811114C080914E019A
:101BD00090914F010E94D11A069718F181E08093ED
:101BE0004D0180E00E947D050E947E1C80914D0188
:101BF0008823B9F081E080934D0180E00E947D054B
:101C00000E947E1C0E94AC16E1E4F1E0819191916A
:101C1000892B09F07AC32DE431E02E173F07B1F785
:101C2000B8CF0E94991880915D02882309F406C2FA
:101C30008091A30684FF02C20E94AC16A82E8111D7
:101C40000E94E01AA1E4B1E0EEEEF0E000E010E066
:101C5000602F2D913D91819191918227932700973B
:101C600079F170E0CC24C394D12CA60148235923E8
:101C7000452B09F179836A832C213D2181E0232BB7
:101C800009F480E08B830E94EC1A8160782F9D8399
:101C90008C8349815A816B818D810E94D504000F0C
:101CA000111FF801E251FF4F80819181C826D9268A
:101CB000D182C08219C07F5FCC0CDD1C7F30A9F6B9
:101CC0000F5F1F4F0630110519F6FE82FF8218863E
:101CD0000E94EC1A8160782F9A8789874E815F81F4
:101CE00068858A850E94D50480919106882341F1F8
:101CF00080918E0690918F060E94D11A20917300D8
:101D000030E02817390730F4C598109291061092E8
:101D1000900616C020919B0122FF12C08770992760
:101D200020919006049738F421110AC081E0809335
:101D30009006C59A05C0222319F010929006C59806
:101D40008091FC00E82FEE0FEE0FE093FC0083B3D0
:101D500082FB442440F8512C90B3892F90E0880FE7
:101D6000892F881F990B009711F082E090E0842959
:101D700095298E2B8093FC008F70E82FF0E0E557BB
:101D8000FF4F90818091FB00890F843024F0909167
:101D9000FA009F5F05C08D3F44F49091FA00915086
:101DA0009093FA00EE24E39401C0E12C082E000C7D
:101DB000990B64E070E00E9481208093FB00E110A9
:101DC0000E94E01A80919901882309F428C110919A
:101DD000FD00812F90E0880F991F88599D4F9093A7
:101DE0006906809368068CE791E00E94151839E037
:101DF000139FC0011124811544E0940714F080E082
:101E000090E088599D4F90936906809368068CEC0A
:101E100092E00E94151880919901882309F4E4C08A
:101E20008091660290916702009709F4DDC02091CD
:101E30003F012111D9C0222E312CCC24C394D12CA6
:101E4000022E02C0CC0CDD1C0A94E2F7AC014C213E
:101E50005D21452B11F42F5FEECF30913E01C10182
:101E6000E6E0880F991FEA95E1F730FD0FC0109268
:101E70006E0076E0969587957A95E1F780937100EC
:101E80008FE380936F001092720016C0880F892F25
:101E9000881F990B9195880F880F880F80936E008B
:101EA0002295220F220F207420937100895F809366
:101EB0006F0087E08093720024E630E047E050E056
:101EC0006CE670E088E70E94D11F892B09F08CC076
:101ED00080913E0180FD23C0C10156E0880F991F0B
:101EE0005A95E1F7AC0148595D4F04E610E020E453
:101EF00030E060E488E70E94F71F892B09F074C086
:101F00000E94941EC094D0948091660290916702C2
:101F1000C822D922D0926702C092660265C0AEEF95
:101F2000B0E0E62D1D92EA95E9F746E0220C331C5D
:101F30004A95E1F723EA30E03E872D874BE950E0F0
:101F4000AD85BE858D91BE87AD87FA019191AF01B8
:101F50009101290F311DB90168597D4F7C876B872D
:101F600090E082509F4FFC0107E09F01281B390B36
:101F70008824839401C0880C2A95EAF76B857C85B8
:101F8000912CDB011D91BD011821202F29192770EB
:101F9000722E022E000C330BB12F01C0BB0F7A94AE
:101FA000EAF77B2E3195219531092770332701C03F
:101FB00016952A95EAF7712A1081712A70829394F6
:101FC00028E09212DECF015031960F3F71F66D85F9
:101FD0007E856B5A704009F0B3CF04E610E020E430
:101FE00030E04EEF50E085CF809198018823B9F022
:101FF0000E94E01A00919206109193062091940697
:1020000030919506DC01CB01801B910BA20BB30B29
:102010008F3F9F4FAF4FBF4710F40E947E1CA1100F
:1020200001C0E1100E94941E0E944B1B9091400140
:10203000891721F0809340010E947D050E943D1A7E
:102040000E94991880915D02882309F4A2CD8091A5
:10205000AF0684FF9ECD80915302803209F099CD66
:10206000E09133028E2F90E0FC013197E331F105CE
:1020700008F023C1ED5BFF4F0C94952010923402C1
:10208000F9E0F09335021BC180913402823009F4EB
:1020900056C1833071F0813009F00FC10E94E01AFF
:1020A0009093350280933602709337026093380222
:1020B00006C1A1E4B1E0E3E3F2E08C9111969C91BA
:1020C0001197129692838383329622E0EF33F207C0
:1020D000A1F7F5C080913402823009F0EEC0609122
:1020E00035027091360280913702909138020E9439
:1020F0009B200E94BA1EE3C04091360260913502D7
:10210000809134020E944B1C9093370222C1C090F0
:102110003702D0903802DC24CD24DC2480913602B2
:1021200000913502909134023EE1039F8001112419
:1021300044EB949F000D111D1124080F111D080F71
:10214000111D6D2DC80187960E944E206C2DC8016F
:1021500088960E944E20B3C00E94171CB0C060E158
:1021600060933402ACC0B092340271E770933502D0
:10217000A6C00091340210913502102701271027C4
:1021800080903602912C33E3C32E32E0D32EC80167
:1021900081579E4F9601235332402815390508F088
:1021A0008EC00137A2E01A0728F40E943A20F601F7
:1021B000848303C0D60114961C920F5F1F4FBFEF9C
:1021C000CB1ADB0AE4CF00913402109135021027BC
:1021D0000127102780903602912C23E3C22E22E0A3
:1021E000D22EC80181579E4F9601235332402815A5
:1021F000390508F064C00137E2E01E0728F4D60173
:1022000014966C910E944E200F5F1F4FBFEFCB1AA8
:10221000DB0AE7CF0E94071C52C0B09234024FC0C5
:102220000091340210913502102701271027809069
:102230003602912C93E3C92E92E0D92EC8018796DD
:1022400096012353324028153905C8F50836E1E0D8
:102250001E0730F40E943A20D60114968C9302C0D7
:10226000F60114820F5F1F4FFFEFCF1ADF0AE6CF90
:102270000091340210913502102701271027809019
:102280003602912C83E3C82E82E0D82EC8018796AF
:102290009601235332402815390588F4083621E089
:1022A000120728F4D60114966C910E944E200F5FFD
:1022B0001F4FBFEFCB1ADB0AE9CFF092330203E3E3
:1022C00012E08091AF0684FD03C00E949918F9CFF7
:1022D0004FEA56E068E0C8010E94F019085F1F4FFE
:1022E000E2E003351E0769F78091AF0684FD03C065
:1022F0000E949918F9CF4FEA56E060E080E090E044
:102300000E94F0191092530244CCF89421B3939A8E
:10231000822F8C6081BB92B38CE0982792BBFFE741
:1023200038E341E0F15030404040E1F700C00000A8
:1023300092B3892782BB21BB939878942ACC86E2FA
:1023400090E00E943A2010923502109236021092CC
:10235000370280933802B3CF80E008959091EB006C
:1023600092FF0DC0282F2871283019F4877F8460D0
:1023700006C0282F2471243011F48B7F886093FFCE
:102380000DC0282F2871283119F4877E846106C07A
:10239000282F2471243111F48B7E88612091EC0068
:1023A00020FF0DC0382F3871383019F4877F8160D5
:1023B00006C0382F3171313011F48E7F886021FFD3
:1023C0000DC0282F2871283119F4877E816106C03D
:1023D000282F2171213111F48E7E886194FD877E32
:1023E0000895F894E82FE295EF70F0E031A9282FD6
:1023F0002F7081E090E001C0880F2A95EAF7982FAE
:102400009095932391AB92A9892B82AB78940895F0
:10241000CF93DF938238910569F1B0F48133910550
:1024200009F46FC048F48932910509F465C08A3215
:10243000910509F46BC08AC08533910509F457C032
:1024400089339105B9F082C0833E910571F138F46A
:10245000803E9105B1F0823E910511F177C0863E34
:102460009105B9F1873E9105C9F1843E910509F0C6
:102470006DC024C02091EB0020FD53C021FD51C050
:1024800065C08091EB0080FD46C08091EC0080FF2C
:1024900048C08091EB0084FD3FC183EE90E03EC1D7
:1024A0008091EB0082FF3AC0F4CF8091EB0082FD77
:1024B00035C08091EC0080FD34C0EBCF8091EC0002
:1024C00081FF35C08091EB0084FD26C187EE90E04E
:1024D00025C18091EB0083FF27C0F4CF8091EB00F2
:1024E00083FD22C08091EC0081FD21C0EBCF809163
:1024F000EB0085FD1FC021C08091EB0085FD1DC054
:1025000019C08091EB0086FD1BC01DC08091EB00BF
:1025100086FD19C015C089E390E000C182EE90E00D
:10252000FDC080EE90E0FAC086EE90E0F7C084EE49
:1025300090E0F4C089E290E0F1C085E390E0EEC065
:102540008AE290E0EBC081E390E0E8C0811532E5DB
:10255000930708F069C0811541E5940728F0982F8A
:102560008827816F906ADAC0883E910568F5803EC1
:10257000910508F0D3C0883A9105B8F4853A9105E1
:1025800048F0855AE82FF0E0E555FF4F808190E054
:102590009064C4C08130910509F4BBC008F4BCC08C
:1025A0008430910508F4B8C0B9C08F3B910508F09C
:1025B000B3C0885AE82FF0E0EE0FFF1FE255FF4F3F
:1025C000808191819464AAC0811520E59207F0F082
:1025D0009C0174E0369527957A95E1F7922F9370D8
:1025E000482F437021E030E002C0220F331F4A958C
:1025F000E2F73C68392B8F70982F9695969540E2BC
:10260000949FC0011124822B932B88C0811530E444
:10261000930718F09F70906A81C09C013A9521152C
:102620003F4108F47BC078C0EC01C11586E5D807AE
:10263000E8F5C11525E5D20748F08C2F0E94AE11B0
:102640008F7190E0982F8827906268C0C11534E59B
:10265000D30728F09C2F8827846F906A5FC0AE0153
:10266000437055272C2F26952695C115D34578F410
:1026700081E090E002C0880F991F4A95E2F740E29E
:10268000249F90011124822B932B9C6847C081E0EA
:1026900090E002C0880F991F4A95E2F740E2249F1C
:1026A00090011124822B932B9A6838C0C1152AE51A
:1026B000D207F8F4C11539E5D30790F08C2F8F704D
:1026C0000E94AE1194E0D695C7959A95E1F7CF7028
:1026D000D0E0DC2FCC27D0699E01282BC9011EC079
:1026E000C11548E5D407C0F09C2F8827806F906AF9
:1026F00015C0CE0190568115904270F48D2F8F71C8
:102700000E94AE11282F2F71CE0199279062922B33
:1027100005C081E090E002C080E090E0DF91CF91C1
:102720000895AB01BC0188E190E00C945F20CF9349
:1027300084E090E00E943A20C82F82E290E00E945C
:102740003A202C2F30E0A901582BCA01CF910895CF
:1027500080E090E00E944820893E9E4F11F40C9446
:10276000EB1E80E0089569EE7EEF80E090E00E942D
:102770006B2060E082E090E00E944E2060E083E009
:1027800090E00E944E201092940160E084E090E07E
:102790000E944E2060E082E290E00E944E2060E0C5
:1027A00085E090E00E944E2060E086E090E00E948C
:1027B0004E206FEF87E090E00E944E2040E050E016
:1027C000BA0188E090E00E945F2060E08DE090E038
:1027D0000E944E2040E050E0BA0188E190E00E9463
:1027E0005F2060E087E190E00E944E2040E050E0F2
:1027F000BA018CE190E00E945F2060E070E080E22E
:1028000090E00E946B200E94CA1B80E00E94BE1EC6
:102810000E94DC1E40E050E0BA018FE090E00E9490
:102820005F2040E050E0BA0183E190E00C945F202B
:102830008091930181111092930108958095909158
:102840009201892380939201089590919201809141
:102850009101982B9093500180919301882389F0E6
:10286000892B80935001E2E5F1E097E080E0915000
:1028700029F021912223D9F38F5FF9CF81110E9492
:102880001814E091A301F091A401309731F0028077
:10289000F381E02D80E591E0099408952091900165
:1028A0008095822380939001982F977099F430E05F
:1028B000482F082E000C550B2417350759F090911E
:1028C000EC0092FD07C08595859585950E942E1D8B
:1028D000109290010895CF93C091EC00C2FB99270C
:1028E00090F9981799F080FBC2F9C093EC006091C1
:1028F000EB0084E090E00E944E206C2F82E290E09A
:102900000E944E2082E0CF910C944E14CF910895F6
:1029100080918F0190915E01891719F08F5F877008
:10292000FBCF08950F931F93CF93DF9380915D01A9
:1029300082958F7009F05DC080915A01882309F457
:1029400058C080918F0110915E0160915801709183
:102950005901C0915B01D0915C0191E06F3F09F09A
:1029600090E0292F06E0811709F443C0209721F059
:102970007F3F21F030E003C031E001C0322F90E012
:1029800030FD34C0089FF001099FF00D1124DF01D4
:10299000A15ABE4F11963C911197371327C03C9115
:1029A000361324C012963C91129731111FC0139612
:1029B0004D915C9114974C1B5D0B483C5105B0F454
:1029C00080915D018F70806180935D01EC59FE4FB5
:1029D00080818F708061808388E591E00E9483050B
:1029E000DF91CF911F910F910C94881401968770FD
:1029F000BACFDF91CF911F910F910895CF93DF93BD
:102A0000EC010E94A41CBE010E94711C0E940812CD
:102A1000DF91CF9108959F92AF92BF92CF92DF92B4
:102A2000EF92FF920F931F93CF93DF93CDB7DEB753
:102A300061970FB6F894DEBF0FBECDBF8C0185E065
:102A4000F801DE011D9601900D928A95E1F7F801DB
:102A5000E280909158016091590140915B01509141
:102A60005C014115510531F06F3F31F481E09F3F2A
:102A700019F403C081E001C080E0F82FF1709F2EAF
:102A800080FD1AC1F80130812181C380D48088E59E
:102A9000A82E81E0B82EF0905A01F601E41BF50B48
:102AA000FF2009F4C6C080915D01E83CF10508F003
:102AB00091C0482F407F09F050C0621311C093139A
:102AC0000FC0FE2CE1100CC08F70806180935D01FF
:102AD000C5010E94830580915D01F801858329C1AC
:102AE000CD2831F02F3F31F481E03F3F19F403C08E
:102AF00081E001C080E080FD03C081E08E2502C03E
:102B000080E090E0F82FF170FF2E80FF1CC08091D4
:102B10008F0140915E0156E0841709F4E8C090E00F
:102B2000589FF001599FF00D1124E15AFE4F618129
:102B3000261306C06081631303C06281E61203C0DE
:102B400001968770E9CFFE2CEE2009F4F2C0809147
:102B50005D01816080935D0149C0621306C09313DB
:102B600004C0E11002C0F80186C0C8010E94491DDE
:102B7000882351F1EE2041F120915D01822F829551
:102B80008F7090E0029774F08091580190915901F4
:102B900098878F831986DB86CA862C87CE01079695
:102BA0000E94830586E0F801A8E5B1E001900D924E
:102BB0008A95E1F70E9492140AC06217C9F0C80111
:102BC0000E94491D81111EC0C8010E948305FF2477
:102BD000F394AFC0482F407F81F788E591E00E94D1
:102BE000830586E0F50111928A95E9F7F12CA1C0E1
:102BF0009313E5CFE110E3CFF8018583C8010E946C
:102C0000830554C0EE2001F320915D01822F82954F
:102C10008F7090E0029734F28091580190915901A1
:102C20009A8389831B82DD82CC822E83CE0101961A
:102C3000B7CFE83CF105D0F5FE2CEE2029F2621367
:102C400027C0931325C020915D0120FD18C0822F5D
:102C500082958F70482F50E04115510581F0F801A1
:102C600025834F30510541F08F5F982F9295907FCB
:102C7000822F8F70892B8583C8010E94830586E08F
:102C8000F801A8E5B1E001900D928A95E1F751C0F5
:102C9000C8010E94491D811185CF80915D0181602D
:102CA00080935D01C8010E94830543C086E0F50161
:102CB00011928A95E9F73DC0EE2009F485CFC8014D
:102CC0000E94491DF82E882309F47ECF86E0F80182
:102CD000A8E5B1E001900D928A95E1F78091580145
:102CE000909159010E94FE140E94921422C03D87C7
:102CF0002E878D859E850E94FE14292F22952F7088
:102D0000223028F49F7039F0811105C00BC02430A7
:102D100028F49F7049F4805E883020F0C8010E943A
:102D200083059F2CF92C05C0F8019581907F99F7B8
:102D3000F9CF8F2D61960FB6F894DEBF0FBECDBFD1
:102D4000DF91CF911F910F91FF90EF90DF90CF9087
:102D5000BF90AF909F9008956F927F928F929F92B5
:102D6000AF92BF92CF92DF92EF92FF920F931F9399
:102D7000CF93DF93CDB7DEB72C970FB6F894DEBFB5
:102D80000FBECDBFAE014F5F5F4F7A018CE0FA01FD
:102D900011928A95E9F706E710E06A019CE7692E2F
:102DA00090E0792E88248394912CF80180818F3FC4
:102DB00009F447C0F894E82FE295EF70F0E021A9FC
:102DC0008F70A40102C0440F551F8A95E2F7CA0113
:102DD000922F982B91AB92A98095892382AB7894FE
:102DE00000C0ECE7F0E021E030E0A12CB12C4191F3
:102DF0004F3F89F0A42FA295AF70B0E0D0968C9190
:102E000090E04F7002C0959587954A95E2F780FD56
:102E100002C0C90102C080E090E0A82AB92A220FAE
:102E2000331F50E0EB38F50711F7F80180818F3F31
:102E300011F00E94F111F0EAFA95F1F7F601B18272
:102E4000A0820F5F1F4FF2E0CF0ED11C60167106FB
:102E500009F0ABCF4CE050E0B7018FED90E00E945D
:102E6000A22011E0009709F410E0892B89F08CE092
:102E7000F701AFEDB0E001900D928A95E1F781E0A6
:102E8000809397010E94EC1A90939601809395018C
:102E9000809197018823D1F18091950190919601BD
:102EA0000E94D11A059790F18091DF009091E00087
:102EB00090934201809341018091E1009091E20062
:102EC00090934401809343018091E3009091E4004A
:102ED00090934601809345018091E5009091E60032
:102EE00090934801809347018091E7009091E8001A
:102EF00090934A01809349018091E9009091EA0002
:102F000090934C0180934B0110929701812F2C9646
:102F10000FB6F894DEBF0FBECDBFDF91CF911F91EA
:102F20000F91FF90EF90DF90CF90BF90AF909F9068
:102F30008F907F906F900895FC0193819330D9F02A
:102F400068F4913081F0923009F068C088E496E02E
:102F500090936402809363028BE50895913251F15E
:102F60009232E1F15BC083EA96E090936402809331
:102F7000630282E1089582818130A1F058F08230AD
:102F800009F04CC08AE196E090936402809363025A
:102F900086E1089584E496E090936402809363024E
:102FA00084E0089582E396E0909364028093630244
:102FB00080E108958281813049F028F0823071F5F6
:102FC00083E996E005C08AE596E002C083E796E0D3
:102FD000909364028093630289E0089584819581CF
:102FE0008130910599F050F00297C1F486E895E0A0
:102FF000909364028093630282E308958AED95E0E2
:10300000909364028093630280E4089588EB95E0D6
:10301000909364028093630282E2089580E00895B1
:103020000895089580915E020895EF92FF920F93A4
:103030001F93CF93DF93209168063091690628563D
:103040003240A901405B5E4F4130544028F040E0DF
:1030500054E0421B530B02C040E551E0C0916602B0
:10306000D0916702D901A859BD4FB901420F531F32
:1030700001E010E064177507E8F4FB01E21BF30BB5
:10308000E80FF91FE491FC91EF1781F0EC93FB013D
:10309000689415F8F695E7951694E1F7780102C063
:1030A000EE0CFF1CEA95E2F7CE29DF296F5F7F4F18
:1030B0001196E0CFD0936702C0936602DF91CF9163
:1030C0001F910F91FF90EF90089580916502982FC6
:1030D0009670963011F4886001C0877F0C942A1D89
:1030E000EF92FF920F931F93CF93DF93EC017B013D
:1030F00064E670E088E70E942E1F8C01EC0EFD1E36
:10310000CE15DF0561F017FD0AC0FE01849164E66B
:1031100070E00E94A51F8C012196892B89F30E94E3
:103120002320C801DF91CF911F910F91FF90EF9065
:103130000895CF93DF938091BE06835087FDE4C04E
:103140009091BD06CCE0D0E0C91BD109C054D94F45
:103150009091BC069031D0F4883019F0109253024F
:10316000D1C080915302E82FF0E0E931F105B4F7C6
:10317000ED5CFD4F9E01285F3F4F999191932C1775
:103180003D07D9F7885F80935302BCC09D3209F098
:10319000A0C0883009F0B6C083EC809398068AE519
:1031A000809375001092620288818076D9F1803216
:1031B00009F084C08981813069F48C819D81892BDB
:1031C00009F07CC085E592E09093640280936302ED
:1031D00088E075C0823041F484E592E09093640207
:1031E0008093630281E06BC08A3021F48B818093ED
:1031F000540264C0893009F061C08A819B818115C5
:10320000924009F0DCC08C819D81892B09F0D7C0E8
:1032100081E0809361028E819F8190936002809310
:103220005F02CDC09A811092A1068981811106C0EA
:103230001092A20621EA36E082E03BC0853019F404
:103240009093BF0633C08630B9F48B81813041F052
:10325000823031F0833021F0813211F0823221F45A
:10326000CE010E949C1701C080E090E4909362021E
:103270008F3F09F4A4C023C0883089F0893019F445
:1032800090935D0213C08A3069F08B3079F48BE43F
:103290008093A4068093D7068093B00607C02DE5DF
:1032A00032E002C021EA36E081E003C021EA36E0E4
:1032B00080E0309364022093630201C080E09F812C
:1032C000911104C09E81981708F4892F809374008F
:1032D00019C08091620287FF15C080915F029091B2
:1032E0006002892B09F475C080916102813009F078
:1032F00070C0888180935E021092600210925F021B
:10330000109274001092BE068091750084FF4CC02C
:10331000809174008F3F09F447C0C82F893008F0AE
:10332000C8E08C1B809374009091980688E88927E8
:1033300080939806CC2359F18091630290916402A6
:103340002091620226FF12C0A8E9B6E02C2FAC0142
:1033500048595640FA01EA0FFB1FE4911196EC938D
:103360001197215011962111F5CF08C0E9E9F6E037
:10337000DC012C2F3D9131932150E1F701962FEF85
:103380002C0F820F911D90936402809363026C2F27
:1033900089E996E00E949003CC5FCC3019F08FEF62
:1033A00080937400C093750084E190B39C70A9F47D
:1033B0008150D9F71092BF061092BB060EC08881CB
:1033C00087FF05C08E8190E8909362027FCF8FEFD8
:1033D000FACF8EE18093750095CFDF91CF9108955C
:1033E0001F93CF93DF93162FEA01288124FF05C096
:1033F000398128E82327298302C02AE52883212F41
:10340000FC01CE010296DC0131913D932150121650
:10341000DCF3612F0E9490031C5F1883DF91CF9132
:103420001F91089590913202981307C020913002A5
:103430003091310226173707B9F08093320270932A
:1034400031026093300280932D0270932F026093BB
:103450002E028091D60684FF07C046ED56E063E059
:103460008DE292E00C94F0190895BC0184E00C9474
:10347000121ABC0183E00C94121ACF93DF93CAE0B6
:10348000D0E08091A30684FF1AC080912B02909116
:103490002C029817F1F028E0829FC001112443EA22
:1034A00056E068E085559E4F0E94F01980912B02EE
:1034B00090E001968F70992780932B020AC00E949A
:1034C00099188FE99FE00197F1F700C0000021975C
:1034D000C1F6DF91CF910895CF93DF93EC01A091D6
:1034E0002C02B0E0CD0101968F70992720912B021C
:1034F000281779F093E0AA0FBB1F9A95E1F7A5551D
:10350000BE4F98E0FE0101900D929A95E1F78093ED
:103510002C020E9499180E943D1A88E0FE01A5E540
:10352000B2E001900D928A95E1F7DF91CF91089575
:1035300098E088E10FB6F894A89581BD0FBE91BDC3
:10354000A895F894D8E0CEE528E3299320E02993C4
:1035500014BEFFCF089578941F920F920FB60F926A
:1035600011248F939F93AF93BF938091A701909164
:10357000A801A091A901B091AA010196A11DB11DB8
:103580008093A7019093A801A093A901B093AA01E9
:10359000BF91AF919F918F910F900FBE0F901F9091
:1035A00018959C014FB7F8948091A7019091A801BC
:1035B000A091A901B091AA014FBF821B930B08955E
:1035C0002FB7F8946091A7017091A8018091A9018B
:1035D0009091AA012FBF08952FB7F8948091A70169
:1035E0009091A801A091A901B091AA012FBF0895BF
:1035F0009C012A5F3F4FFC014281461301C01282A9
:10360000019682179307B9F708959C01FC01329641
:103610009FEF80E04191461789F09F3F19F44111D7
:1036200001C0982F8F5F8630A9F79F3F39F0F901CD
:10363000E90FF11D97FDFA95628308950895209191
:10364000A5013091A6012817390771F09093A601C2
:103650008093A501E091A301F091A401309721F09E
:103660000084F185E02D099408952091A101309105
:10367000A2012817390771F09093A2018093A1014C
:10368000E091A301F091A401309721F00680F78129
:10369000E02D09940895E091A301F091A4013097E1
:1036A00021F00190F081E02D099480E008950F93BE
:1036B0001F93CF93DF93C42FD22FFC0182818823E5
:1036C000C9F04093A0010E94EC1A90939F0180934F
:1036D0009E0180E28C0F883008F057C0C77081E0EF
:1036E00001C0880FCA95EAF7DF91CF911F910F9122
:1036F0000C947B1D8091A001481330C080919E01E5
:1037000090919F010E94D11A883C910538F510E2F2
:103710001D0FCD17B9F080E28C0F883040F4C770D0
:1037200081E001C0880FCA95EAF70E94741D183025
:1037300028F581E09D2F977001C0880F9A95EAF7D0
:103740000E947B1D802F0E94781E1830F0F4D770E5
:1037500081E001C0880FDA95EAF70AC080E28C0F99
:10376000883098F4C77081E001C0880FCA95EAF7E5
:10377000DF91CF911F910F910C94741D802FDF91D9
:10378000CF911F910F910C94781EDF91CF911F91D3
:103790000F910895EAE9F1E080818160897F80835B
:1037A000EBE9F1E080818770ACE9B1E09C919C7F0E
:1037B0009C9380668B7F80838CE080937300609104
:1037C0009A0170919B0180919C0190919D010C94B4
:1037D0009113EAE9F1E080818E7F808360919A0104
:1037E00070919B0180919C0190919D010C9491138B
:1037F000EAE9F1E080818160808360919A017091B3
:103800009B0180919C0190919D010C949113CF9309
:10381000DF93CFE8D1E060E0CE010E944E202196F8
:10382000C11584E0D807B9F7DF91CF910895CF9201
:10383000DF92EF92FF920F931F93CF93DF93C0E03D
:10384000D0E08E010C541F4F6E018EE1C80ED11CCA
:10385000FE01E25EFB4FE590F4906F2DCE0187965E
:103860000E944E206E2DCE0188960E944E202296F8
:10387000CC15DD0569F70C171D0731F7E80108368F
:103880001140F9F6DF91CF911F910F91FF90EF90CA
:10389000DF90CF9008950F931F93CF93DF93C42FA2
:1038A000D0E0CC0FDD1F2EE1629FC00DD11D112491
:1038B00034EB839FC00DD11D1124CE0187960E9449
:1038C0003A20082F10E0102F0027CE0188960E9482
:1038D0003A209801282BC901DF91CF911F910F91B8
:1038E0000895462F823038F4763028F46F3018F47B
:1038F000672F0C944B1C80E090E008958091990113
:1039000090919801882389F0992369F062E070E032
:103910008CE194E00E947018892B19F08091980135
:103920000895109298019091980181E08927089557
:1039300080E090E00E94351B80E090E00E941F1B19
:10394000109291010C942514CF92DF92FF920F9365
:103950001F93CF93DF936C010091650280919401D6
:10396000082BC7E0D0E010E0C8010C2E02C09595EE
:1039700087950A94E2F780FD04C02197A8F7F12CFF
:1039800009C0FC2EB6018C2F0E94711C0E940812E7
:10399000019799F38F2DDF91CF911F910F91FF9098
:1039A000DF90CF9008952FE0929F800D1124682F13
:1039B000669566956695982F977083E0689FB0012D
:1039C000112440E050E080E0FB01E40FF51FE659D0
:1039D000F94F208130E0092E02C0369527950A94D0
:1039E000E2F721703327042E01C0220F0A94EAF770
:1039F000822B4F5F5F4F4330510531F708952FE021
:103A0000929F800D1124E82FE695E695E695877044
:103A100051E001C0550F8A95EAF783E0E89FF00175
:103A20001124E659F94F20E030E070E04081CB01ED
:103A3000022E02C0969587950A94E2F781708195CF
:103A400084278523842781932F5F3F4F23303105BF
:103A500069F70895809365020C94981C21E030E08A
:103A600001C0220F8A95EAF7209580916502822392
:103A70000C942A1D21E030E001C0220F8A95EAF75C
:103A800080916502822B0C942A1D809394010C94E2
:103A9000981CFC01808191810E94FE1492959F7078
:103AA000963079F010F4925001C09A50923068F438
:103AB000803F69F018F4883E40F409C0843F29F43F
:103AC00006C0883E20F0813F11F080E0089581E03B
:103AD00008951092920186E0E2E5F1E0DF011D9287
:103AE0008A95E9F70C94981C882321F00E941E14F3
:103AF0000C9425140895882339F090919201892B14
:103B0000809392010C9425140895882309F453C0DE
:103B1000682F823869F40E944B1B81FF4CC069E317
:103B200080E591E00E94051B0E94251469E30EC008
:103B3000833891F40E944B1B80FF3DC063E580E514
:103B400091E00E94051B0E94251463E580E591E049
:103B50000E94F81A0C942514843869F40E944B1BB7
:103B600082FF29C067E480E591E00E94051B0E9466
:103B7000251467E4EBCF8CEF860F813A38F380E2AF
:103B8000860F883048F4677081E001C0880F6A951D
:103B9000EAF70E941E14DECF8BE5860F833020F4F7
:103BA00080E090E00C94351B685A673120F480E087
:103BB00090E00C941F1B0895CF93882309F496C0BE
:103BC000C82F8238B1F40E944B1B81FD8FC069E37E
:103BD00080E591E00E94051B0E9425142FEF81EEE5
:103BE00094E0215080409040E1F700C0000069E37C
:103BF00017C08338E1F40E944B1B80FD77C063E55A
:103C000080E591E00E94051B0E9425142FEF81EEB4
:103C100094E0215080409040E1F700C0000063E54F
:103C200080E591E00E94F81ACF910C942514843815
:103C3000B1F40E944B1B82FD59C067E480E591E01E
:103C40000E94051B0E9425142FEF81EE94E0215065
:103C500080409040E1F700C0000067E4E1CF8CEFC6
:103C60008C0F813A80F4E2E5F1E088E591E0219162
:103C7000C217A1F18E179F07D1F76C2F80E591E055
:103C80000E94051BD1CF80E28C0F883068F4C7708A
:103C900081E090E001C0880FCA95EAF79091920107
:103CA000892B80939201C0CFEBE5EC0FE33040F419
:103CB000F0E0E555FF4F808190E0CF910C94351BEB
:103CC000C85AC73198F4EC2FF0E0EE0FFF1FE25511
:103CD000FF4F80819181CF910C941F1B6C2F80E549
:103CE00091E00E94F81A0E942514C7CFCF91089541
:103CF0001F93CF93DF93182F893319F0CAE0D0E0D8
:103D000002C0C0E5D0E0812F0E94DC1D8FE99FE05A
:103D10000197F1F700C000002197C1F7812FDF91D3
:103D2000CF911F910C94851D809199018823F9F002
:103D30000E94E01ADC01CB01805A9541AF4FBF4F82
:103D40008093920690939306A0939406B093950661
:103D50008091980181110BC062E070E085EB96E0E4
:103D60000E947018892B19F481E08093980180914A
:103D70009801089586E290E00C944E20CF93C82FCE
:103D8000811102C06FEF01C062E283E290E00E9405
:103D90004E20C11102C06FEF01C064E084E290E0E8
:103DA0000E944E20C11102C06FEF01C067E185E2A1
:103DB00090E0CF910C944E2080E00E94BE1E60E007
:103DC00070E0CB010E94BA1E0E94171C0E94071CC3
:103DD00081E00C94BE1E83E290E00E943A20823281
:103DE00081F484E290E00E943A20843051F485E22C
:103DF00090E00E943A2091E0873109F090E0892F0D
:103E000001C080E08170089580919B0182FD05C012
:103E100080919106882329F0089580919006811160
:103E20000CC081E080939106809390060E94EC1A6A
:103E300090938F0680938E06C59A089511B88CE0F2
:103E400080B985B3836085BB86B7846086BF86B73B
:103E5000816086BF86B7806486BF08959F92AF92C7
:103E6000BF92CF92DF92EF92FF920F931F93CF9367
:103E7000DF93B82EEB010E94EC1A6C01C431D1051E
:103E800058F0CF3F8FEFD80759F0CE0164E170E0D2
:103E90000E9426207B0107C0EE24E394F12C03C08E
:103EA00025E0E22EF12C84E8A82E94EA992E16BE85
:103EB00096BE0E94EC1A8C0106B607FC08C00E9450
:103EC000EC1A801B910B8E159F05B0F324C081B1B5
:103ED000887F883039F081B1887F803119F00FEF09
:103EE0001FEF1BC0B3B8A6BE0E94EC1A8C0106B629
:103EF00007FC08C00E94EC1A801B910B8E159F05D1
:103F0000B0F309C081B1887F883111F0803439F76E
:103F100000E010E00DC00EEF1FEFCF3F8FEFD8078E
:103F200031F2C6010E94D11A8C179D0708F4BFCF49
:103F3000C801DF91CF911F910F91FF90EF90DF901B
:103F4000CF90BF90AF909F9008950F931F93CF9302
:103F5000DF93EB0183B984E886BF0E94EC1A8C01E1
:103F600006B607FC0EC0CF3F8FEFD807C9F30E94FB
:103F7000EC1A801B910B8C179D0790F38EEF9FEF2F
:103F80000BC021B1287F81E090E0283211F480E05D
:103F900090E0919581959109DF91CF911F910F91BB
:103FA0000895CF92DF92EF92FF920F931F93CF93DA
:103FB000DF936B018A017901B9010E942E1FE6018E
:103FC0000C0D1D1DC017D10759F424E926BFDF9140
:103FD000CF911F910F91FF90EF90DF90CF900895B8
:103FE00097FDF3CFB70189910E94A51FEBCFCF9228
:103FF000DF92EF92FF920F931F93CF93DF93C62F21
:104000006A017901B8010E942E1F97FD11C0B80105
:104010008C2F0E94A51FE601EC0CFD1CCE15DF05C0
:1040200039F097FD05C0B80189910E94A51FF6CF10
:1040300024E926BFDF91CF911F910F91FF90EF9060
:10404000DF90CF90089584E986BF0895AA1BBB1B1B
:1040500051E107C0AA1FBB1FA617B70710F0A61B88
:10406000B70B881F991F5A95A9F780959095BC01A9
:10407000CD010895E199FECF9FBB8EBBE09A9927B1
:104080008DB30895A6E1B0E044E050E00C947320B5
:10409000A8E1B0E042E050E00C947320262FE199B3
:1040A000FECF9FBB8EBBE09A01970DB2021631F096
:1040B0002DBB0FB6F894E29AE19A0FBE08950396CD
:1040C000272F0E944F200E944E20252F0E944F2014
:1040D000242F0C944F200196272F0E944F200C94E0
:1040E0004E20DC01CB01FC01E199FECF06C0FFBBF5
:1040F000EEBBE09A31960DB20D9241505040B8F7A8
:10410000089597FB072E16F4009407D077FD09D089
:104110000E94262007FC05D03EF4909581959F4F84
:104120000895709561957F4F0895EE0FFF1F0590DC
:10413000F491E02D09946927962769277827872726
:1041400078270895FB01DC0104C08D91019080194E
:1041500021F441505040C8F7881B990B0895F894FA
:02416000FFCF8F
:1041620012186C1A1118391A351A10180021003F4A
:1041720022000F0CFF5A36969794379591929360CE
:10418200616263640001050635343300FF010001FA
:104192000000FFFF0000010001FF000008101820CE
:1041A2002830383830282018100800818283E20035
:1041B200E900EA00B500B600B700CD008301CC00EB
:1041C2008A0192019401210223022402250226027D
:0C41D20027022A02B300B4006F00700046
:00000001FF
