:100000000C94FF010C941C020C9437020C941C02FB
:100010000C941C020C941C020C941C020C941C02E8
:100020000C941C020C941C020C94791D0C941C0260
:100030000C941C020C941C020C941C020C941C02C8
:100040000C941C020C941C020C941C020C941C02B8
:100050000C941C022F072F075B075B07B807B70834
:10006000B708B708D6073E084F084F089B149E14E0
:10007000BE14CF14D714E2142815281528152815F6
:100080002815E514E814ED14FA1407150A150E15D1
:100090001B153A003B003C003D003E003F00400085
:1000A0004100420043004400450046004700A800CC
:1000B00035001E001F002000210022002300240024
:1000C0002500260027002D002E0031002A002B00DD
:1000D00014001A000800150017001C0018000C007E
:1000E000120013002F00300031004A0039000400D4
:1000F0001600070009000A000B000D000E000F009B
:100100003300340028004B004E00E1001D001B00AE
:1001100006001900050011001000360037003800F5
:10012000E500E5005200E100E000E300E2007600B7
:100130002C00015101512C00E600E700E4005000C2
:1001400051004F00290001000100010001000100E1
:100150000100010001000100010001000100010097
:100160000100010001000100010001000100010087
:100170000100010001000100010001000100010077
:100180000100010001000100010001000100010067
:100190000100010001000100010001000100010057
:1001A0000100010001000100010001000100010047
:1001B0000100010001000100010001000100010037
:1001C0000100010001000100010001000100010027
:1001D0000100010001000100010001000100010017
:1001E0000100010001000100010001000100010007
:1001F0000100010001000100005C0000000000009F
:1002000000002A2B28000000000000000000000071
:10021000000000000029000000002C1E34202122D4
:1002200024342627252E362D3738271E1F2021223D
:10023000232425263333362E37381F0405060708B6
:10024000090A0B0C0D0E0F101112131415161718A6
:10025000191A1B1C1D2F3130232D350405060708E4
:10026000090A0B0C0D0E0F10111213141516171886
:10027000191A1B1C1D2F3130354C000000000000E6
:10028000000000000000000000000000000000006E
:1002900000000000000000000000000000007E0FD1
:1002A00000D4FFFFFFC70000007800AE00AF00DA07
:1002B00012811ED9F1DB20A4A62EAF00A0C000A1A0
:1002C000C800AED580A87FD300408D14200009025D
:1002D0005B00030100A0FA09040000010301010012
:1002E00009210101000122400007058103080001E6
:1002F000090401000203000000092101010001229C
:100300002200070584030800010705040308000113
:10031000090402000103000000092101010001227B
:1003200032000705830308000112011001000000DC
:1003300008C016DC05020101020001160372006507
:10034000006400680065007200720069006E00675A
:100350000000001003640063007000650064006921
:100360000074000000040309040660FF0961A10194
:100370000962150026FF00952075088102096315A2
:100380000026FF00952075089102C005010980A193
:1003900001850319012AB700150126B700950175DB
:1003A000108100C0050C0901A101850419012AA0D2
:1003B00002150126A002950175108100C0050109F2
:1003C00006A101050719E029E71500250195087523
:1003D0000181029501750881030507190029FF15A0
:1003E0000026FF00950675088100050819012905FA
:1003F000950575019102950175039103C0001124C3
:100400001FBECFE5D8E0DEBFCDBF11E0A0E6B0E073
:10041000E8E4F3E402C005900D92A031B107D9F7EA
:1004200027E0A0E1B1E001C01D92AB31B207E1F7D6
:100430000E94D5130C94A2210C940000A82FB92F70
:1004400080E090E041E050EA609530E009C02D91F5
:1004500082279795879510F084279527305EC8F3FB
:100460006F5FA8F30895EADF8D939D930895CF936E
:10047000CFB7CF93DF93C395839BE9F7839B10C0DE
:10048000839B0EC0839B0CC0839B0AC0839B08C0C8
:10049000839B06C0C091F206C395C093F2068EC03E
:1004A0006F93C091F106DD27C750D94F2F9365E5B3
:1004B000839B03C02F916F91E1CF0F931F934F93B5
:1004C00020E040E15F9300B30C7003FB27F93F93FA
:1004D00050E03BE039C01C7040642F77012F5F5F14
:1004E0001EC0406810B31C702F7752501FC040646C
:1004F00000B32F770C70D1F15F5F00C023C0406262
:1005000010B32F771C7091F15F5F00C025C00C7095
:100510001027515012F45D5F0000115027952C3FB9
:1005200010B3C8F61C700127015027952C3FC8F660
:100530004227499300B30C7010274F731150279531
:100540002C3FA8F64695469510B31C7079F001270C
:10055000015027952C3F98F66B5A60F3315000B349
:10056000B0F600C010E81ABF00271CC03B50319500
:10057000C31BD04010E81ABF0881033C21F10B34A3
:1005800011F12091EE061981110F1213EDCF4A815E
:10059000441F093679F10D3211F0013E29F74F70F1
:1005A00009F0042F0093F7063F915F914F911F913F
:1005B0000F912F916F91CAB7C7FD5DCFDF91CF919A
:1005C000CFBFCF9118952091F706222369F31091A0
:1005D000F506112309F049C034300AF448C03093BD
:1005E000F5062093F0061091F1063BE0311B3093A5
:1005F000F1063DC00091F5060130BCF50AE54F70EB
:1006000049F43091780034FD33C000937800CBEC8E
:10061000D6E032C0433059F0443091F03091D606E4
:1006200034FD26C00093D606C7EDD6E025C0309134
:100630000F0734FD1DC000930F07C0E1D7E01CC0B9
:100640003091E20634FD14C00093E206C3EED6E01A
:1006500013C0052710E000C0000002BB1AC0052728
:1006600010E0221F1DC010E021C04AE502C032ED9B
:10067000432FC4E1D0E032E011B31C60939A02B37F
:1006800011BB5CE020E865E320FF052702BB27954E
:1006900017951C3FF0F66695B8F7B1F720FF0527D0
:1006A00002BB279517951C3FD0F62795179517FF86
:1006B000052700001C3F02BBB0F629913A9519F7B7
:1006C000037F1091F606110FC651D04002BB11F006
:1006D0001093EE0610E81ABF086011B3137F402F85
:1006E000437F54E05A95F1F702BB11BB42BB5CCF8C
:1006F000811107C0662311F089EA01C08AEA0E94CD
:10070000DD0681E0089581E0089581E008950C946C
:10071000850308950C9489031F93CF93DF9300D032
:1007200000D01F92CDB7DEB749835A836B833091D7
:10073000130189819A81311114C0662359F0222353
:1007400049F00E94420A182F682F89819A810E94DD
:10075000EB0903C00E94160A182F69817A81812F44
:1007600004C00E94420A69817A810F900F900F9015
:100770000F900F90DF91CF911F910C945519FC01B0
:10078000262F408151816281738184810C948C0376
:1007900081E00895CF93DF93EC0160E00E94BF03F6
:1007A000BE01DF91CF910C948A03E1E0F0E0DF011C
:1007B00002C0AA0FBB1F6A95E2F7BD01DF0102C0AC
:1007C000AA0FBB1F4A95E2F7AD01462B01C0EE0F01
:1007D0002A95EAF7942F9823491302C08E2B089587
:1007E000E0958E230895242F462F682F809138019D
:1007F0000E94D5030C94A8090C948C120C948812B6
:1008000008950E9443090E9400042FEF84E39CE0B6
:10081000215080409040E1F700C000000C949F1DE3
:100820000F931F93CF93DF938C0161E00E94BF036E
:10083000EC01B8010E944A14882309F444C0B801AD
:10084000CE010E9487038823F1F1B801CE010E94F6
:100850002C1B8823C1F1B801CE010E9447178823C1
:1008600091F1B801CE010E94881A882361F1F80144
:100870008281882309F1CA358DE5D807C1F050F48B
:10088000C115FCE5DF0781F0CE3DDC45A9F40E94EF
:100890004A0F19C0CB35EDE5DE0761F0CC35DD45FB
:1008A00059F40E948E0E08C00E9401040CC00E94E0
:1008B000970E02C00E949A0EC801DF91CF911F913E
:1008C0000F910C94830380E0DF91CF911F910F91E2
:1008D00008950E94231D0E9463050C94FB160E943C
:1008E00066050C94291DDF92EF92FF920F931F93E0
:1008F000CF93DF93E82FF0E0E650FE4FD490282FFF
:1009000026952695269530E0F901E656FD4F04918F
:10091000877010E0082E02C0159507950A94E2F73B
:1009200001701127F901E657FD4FE490F12C082ED4
:1009300002C0F594E7940A94E2F791E0E922FF24DB
:10094000F901E658FD4FC491D0E002C0D595C79596
:100950008A95E2F7C170DD270115110519F081EEC6
:100960000E94C505E114F10419F086EE0E94C50548
:100970008D2D0E94DD06EF2819F086EE0E94670695
:10098000012B19F081EE0E946706CD2B51F08CE20D
:10099000DF91CF911F910F91FF90EF90DF900C941A
:1009A000DD06DF91CF911F910F91FF90EF90DF90C7
:1009B0000895EF92FF920F931F93CF93DF93EC0173
:1009C000162F0AE08881882309F455C0813009F088
:1009D00043C08981813041F47E0182E0E80EF11C40
:1009E0008A810E94DD0609C0823049F47E01E2E07E
:1009F000EE0EF11C8A810E94C505E7012FC08330ED
:100A000041F47E01F2E0EF0EF11C8A810E9467063C
:100A1000F4CF843011F0219621C02A81229680E003
:100A200090E030E0205331092A30310558F4089F16
:100A3000A001099F500D1124C901840F951F219613
:100A40002881EFCF009751F0EFE9FFE03197F1F700
:100A500000C000000197F6CF0E9473042196812FF9
:100A6000882309F4AFCFEFE9FFE03197F1F700C039
:100A700000008150F5CFDF91CF911F910F91FF9032
:100A8000EF90089560E00C94D90408950C94450506
:100A900081E00895CF93C82F0E944805882329F04C
:100AA000C1FF02C0D89A01C0D898CF910895D09ABA
:100AB000D8980895CF93C82F0E9446058C2F0E9486
:100AC0004A05CF91089580E00C945A050E94901C2D
:100AD0000C945A050E94901C90911201891721F0E4
:100AE000809312010C945A050895CF93DF93CDB7EC
:100AF000DEB72B970FB6F894DEBF0FBECDBF4F8386
:100B0000588769877A878B8761110E94F30D9E0150
:100B10002F5F3F4F86E0F90111928A95E9F785E052
:100B2000FE013796D90101900D928A95E1F78981EE
:100B30009A814C815D81452B31F09F3F31F491E0EA
:100B40008F3F19F403C091E001C090E090FF09C00D
:100B500049815A816B817C818D819E810E94140D17
:100B600005C0C9010E94C8038111F2CF2B960FB6B0
:100B7000F894DEBF0FBECDBFDF91CF910895FC0189
:100B8000808191810E946F0A0895CF93882309F490
:100B90009CC0C82F8238C1F40E94901C81FD95C072
:100BA00069E380916200909163000E94151D0E948C
:100BB000150E2FEF81EE94E0215080409040E1F738
:100BC00000C0000069E319C0833801F50E94901C41
:100BD00080FD7BC063E580916200909163000E947C
:100BE000151D0E94150E2FEF81EE94E021508040DC
:100BF0009040E1F700C0000063E5809162009091B1
:100C000063000E94171DCF910C94150E8438C1F417
:100C10000E94901C82FD59C067E48091620090910F
:100C200063000E94151D0E94150E2FEF81EE94E0C7
:100C3000215080409040E1F700C0000067E4DDCF24
:100C40008CEF8C0F813AD0F46C2F809162009091E0
:100C500063000E94DF1C882349F06C2F80916200A2
:100C6000909163000E94171D0E94150E6C2F8091B9
:100C70006200909163000E94151DC5CF80E28C0F29
:100C8000883048F4C77081E001C0880FCA95EAF740
:100C90000E94D60DB8CFEBE5EC0FE33040F4F0E066
:100CA000E955FF4F808190E0CF910C94A71CC85A62
:100CB000C73158F4EC2FF0E0EE0FFF1FE758FF4F5D
:100CC00080819181CF910C94BD1CCF910895882390
:100CD00009F45BC0682F823879F40E94901C81FF70
:100CE00054C069E380916200909163000E94151DD9
:100CF0000E94150E69E310C08338B1F40E94901C65
:100D000080FF43C063E580916200909163000E9480
:100D1000151D0E94150E63E580916200909163009D
:100D20000E94171D0C94150E843879F40E94901CB3
:100D300082FF2BC067E480916200909163000E9463
:100D4000151D0E94150E67E4E7CF8CEF860F813AE0
:100D500018F380E2860F883048F4677081E001C0A4
:100D6000880F6A95EAF70E94DC0DDCCF8BE5860FD1
:100D7000833020F480E090E00C94A71C685A67311F
:100D800020F480E090E00C94BD1C08951F93CF9355
:100D9000DF93182FEB010E94C505209741F08FE9E2
:100DA0009FE00197F1F700C000002197F6CF812F57
:100DB000DF91CF911F910C946706893319F06AE097
:100DC00070E002C060E570E00C94C606882321F054
:100DD0000E94D60D0C94150E0895882321F00E94D0
:100DE000DC0D0C94150E0895CF92DF92EF92FF92D6
:100DF0000F931F93CF93DF937C01162FC72FFC0116
:100E0000D281058102950F700E94CC0D8823B9F024
:100E1000DD23A9F08C2F807F803421F080E2810FC8
:100E2000883068F08091A80282FD09C082E00E94AB
:100E30005C0E0E94CC0D91E0D82ED92601C0D12C99
:100E4000CC2EC2948FE0C8228C2D90E08C3091057E
:100E500008F08DC1FC01E65DFF4F0C9447218C2FFB
:100E6000807FCF70882311F0C295C07FDD2399F079
:100E7000CC2309F463C180E2810F883010F0111196
:100E800004C08C2F0E94D60D03C08C2F0E94E60D4B
:100E90000E94150E53C1812F0E946706CC2309F4CE
:100EA00066C180E2810F883038F1112329F18C2F3F
:100EB0000E94EC0D24C08C2F807FCF70803211F007
:100EC000C295C07F112319F01130A1F13DC080916E
:100ED000A80282FF17C0DD2349F0CC2329F08C2F14
:100EE0000E94D60D0E94150E80E029C180E00E946C
:100EF0006706CC2309F43BC18C2F0E94DC0D0E94B5
:100F0000150E35C1DD2371F0002341F0013031F4BD
:100F10000E94F60D8C2B0E94FE0D29C10E94F60D39
:100F20008C2B1DC0002319F0013009F420C10E9450
:100F30000B0E1AC0DD2321F0063008F018C10EC0D8
:100F4000053008F014C110C0DD2361F0002331F03A
:100F5000F701858180FFF2C08F7085838C2F0E94FE
:100F6000E60605C10111F0C08C2F0E94ED06FFC0FE
:100F70008C2F86958695837019F0813061F0F7C0CB
:100F8000DD2321F0812F9C2F937002C080E090E040
:100F90000E94A71CF4C0DD2321F0812F9C2F9370A9
:100FA00002C080E090E00E94BD1CE9C08C2F8370DD
:100FB00079F5D111E0C0412F429546954770440F15
:100FC000440F212F2F70042E01C0220F0A94EAF73C
:100FD00014FF08C08FE090E001C0880F4A95EAF73F
:100FE000809501C080E0C695C695C370822BC23043
:100FF00049F058F4C13019F00E949C09BCC00E940D
:101000009709B9C00E94A109B6C00E949509B3C052
:10101000DD2319F08C2F817001C08695882309F497
:10102000AAC0412F429546954770440F440F212F87
:101030002F70042E01C0220F0A94EAF714FF08C093
:101040008FE090E001C0880F4A95EAF7809501C0D3
:1010500080E0C695C695C370822BC23049F058F423
:10106000C13019F00E94E00986C00E94DB0983C0EC
:101070000E94E50980C00E94A8097DC0CF70DD23D1
:1010800039F08C2F0E94B909812F0E94E60673C0A7
:10109000812F0E94ED068C2F0E94C4096CC0123F64
:1010A00021F128F4103F41F0113FC1F043C0133F3C
:1010B00019F1143F79F03EC0DD2341F0053008F00E
:1010C00056C08C2F8F710E94D00951C0063008F095
:1010D0004EC0F7CF8091A80282FF18C0DD2339F0FF
:1010E0008C2F8F710E94B90942C0DD23C9F38C2F68
:1010F0008F710E94C4093BC0DD2329F08C2F8F71B2
:101100000E94B10934C00E94AE0931C0DD2349F00C
:10111000CF718C2F0E94B90963E08C2F0E94410E81
:1011200026C081E00E945C0E023008F182E00E943D
:101130005C0E1DC0DD2331F0002391F2812F0E944F
:10114000C50515C0002399F2193341F4FFEF27EECE
:1011500083E0F15020408040E1F704C0EFE3FCE978
:101160003197F1F700C00000812F0E94670688EFD9
:101170008C0D843020F40E94901C0E945A05DD20C2
:10118000C9F00E94C80D80FD15C0F70112820E94AF
:10119000C20D0E94B909C7010E94FB080E94C20D3E
:1011A000DF91CF911F910F91FF90EF90DF90CF9043
:1011B0000C94C409DF91CF911F910F91FF90EF9094
:1011C000DF90CF9008950F931F93CF93DF93EC019F
:1011D000688179818A810E947A0A8C010E94EA09D9
:1011E0000E948909B801CE010E94F406DF91CF91D7
:1011F0001F910F910895CF93DF93EC01988189811E
:101200002B813C81232B31F08F3F31F481E09F3FD4
:1012100019F403C081E001C080E080FD1DC0CE0153
:101220000E941004811110C00E94CC0D8823A1F0EF
:101230008A81882389F08091A80282FD0DC082E016
:10124000DF91CF910C945C0ECE010E94E308CE0199
:10125000DF91CF910C94CA03DF91CF91089580E084
:1012600090E00E94A71C80E090E00E94BD1C0E94BC
:10127000F30D0C94150E80916200909163000E9412
:10128000191D0C942F090E94E30D0C943B099295B3
:101290009F70963079F010F4925001C09A509230BD
:1012A00068F4803F69F018F4883E40F409C0843F38
:1012B00029F406C0883E20F0813F11F080E00895B7
:1012C00081E00895FC01808191810E946F0A0E9453
:1012D00047090895CF93DF9300D000D01F92CDB778
:1012E000DEB70F900F900F900F900F90DF91CF917E
:1012F0000895CF93DF9300D000D000D0CDB7DEB7F4
:1013000026960FB6F894DEBF0FBECDBFDF91CF910A
:101310000895089508950C948A090C948B090E94ED
:101320008D09809339010C942F090C948F099091A9
:101330003901892B0C948F099091390189230C94E0
:101340008F099091390189270C948F090C948A098F
:101350000E94A609809338010C942F0980E00C9418
:10136000A80991E001C0990F8A95EAF7892F0C949A
:10137000A80921E030E001C0220F8A95EAF78091A8
:101380003801822B0C94A80921E030E001C0220F23
:101390008A95EAF720958091380182230C94A80958
:1013A00021E030E001C0220F8A95EAF780913801F0
:1013B00082270C94A80990913801892B0C94A809D4
:1013C0009091380189230C94A809909138018927BC
:1013D0000C94A80908952FE0929F800D1124E82F06
:1013E000E695E695E695877051E001C0550F8A9520
:1013F000EAF783E0E89FF0011124EC5EFE4F20E065
:1014000030E070E04081CB01022E02C096958795B6
:101410000A94E2F78170819584278523842781933C
:101420002F5F3F4F2330310569F708952FE0929FDA
:10143000800D1124682F669566956695982F977094
:1014400083E0689FB001112440E050E080E0FB01A0
:10145000E40FF51FEC5EFE4F208130E0092E02C044
:10146000369527950A94E2F721703327042E01C0A0
:10147000220F0A94EAF7822B4F5F5F4F43305105EA
:1014800031F70895CF92DF92FF920F931F93CF937E
:10149000DF936C010091380180913901082BC7E07E
:1014A000D0E010E0C8010C2E02C0959587950A94F3
:1014B000E2F780FD04C02197A8F7F12C07C0FC2EAD
:1014C000B6018C2F0E9463110197A9F38F2DDF9134
:1014D000CF911F910F91FF90DF90CF900895CF9300
:1014E000DF93EC010E94420ABE010E946311DF916A
:1014F000CF9108951F93CF93DF93EB019091130148
:10150000992321F0CB010E946F0A13C0882349F070
:10151000CB010E94420A182F682FCE010E94EB09CE
:1015200004C0CB010E94160A182FBE01812F0E9411
:101530006311DF91CF911F9108951F93CF93DF9394
:10154000C0913A0116E080913B01C81799F0D0E0B4
:101550001C9FF0011D9FF00D1124E45CFE4F4081A3
:10156000518162817381848195810E9479092196DC
:10157000C770E9CFDF91CF911F91089540916C0121
:1015800050916D0160916E0170916F0180917001B9
:10159000909171010C947909EF92FF920F931F9330
:1015A000CF93DF938091710182958F7009F065C0B0
:1015B00080916E01882309F460C080913A01F09017
:1015C0003B0110916C0100916D0160916F01709170
:1015D000700191E01F3F09F090E0C0916000D09150
:1015E0006100292F96E0E92E8F1509F446C0611598
:1015F000710521F00F3F21F030E003C031E001C060
:10160000322F90E030FD36C0E89EF001E99EF00DEB
:101610001124DF01A45CBE4F11963C911197301349
:1016200029C03C91311326C012963C91129731117A
:1016300021C013964D915C911497461B570B4C1784
:101640005D07C0F4809171018F708061809371019A
:10165000EF5BFE4F80818F70806180838CE691E02C
:101660000E94FB08DF91CF911F910F91FF90EF90A7
:101670000C949D0A01968770B7CFDF91CF911F918F
:101680000F91FF90EF9008959F92AF92BF92CF92EB
:10169000DF92EF92FF920F931F93CF93DF93CDB71B
:1016A000DEB761970FB6F894DEBF0FBECDBF8C01D9
:1016B00085E0F801DE011D9601900D928A95E1F713
:1016C000D8011296EC9090916C01E0916D012091FF
:1016D0006F01309170012115310531F0EF3F31F488
:1016E00081E09F3F19F403C081E001C080E0B82F82
:1016F000B1709B2E80FD47C1D8014C9111965C9131
:1017000011971396AD90BC9014978CE6C82E81E08B
:10171000D82EF0906E01B501621B730B2091600012
:1017200030916100FF2009F4D9C0809171016217E6
:10173000730708F095C0282F207F09F052C05E1370
:1017400013C0491311C0FE2CE1100EC08F708061D0
:10175000809371010E94BE0AC6010E94FB0880911D
:101760007101F80185834DC1AB2831F05F3F31F441
:1017700081E04F3F19F403C081E001C080E080FDAB
:1017800003C081E08E2502C080E090E0F82FF17068
:10179000FF2E80FF1CC080913A0120913B0136E072
:1017A000821709F40BC190E0389FF001399FF00DCA
:1017B0001124E45CFE4F6181561306C0608146131C
:1017C00003C06281E61203C001968770E9CFFE2C48
:1017D000EE2009F416C1809171018160809371013E
:1017E00054C05E1306C0491304C0E11002C0F801E2
:1017F00099C0C8010E946209882361F1EE2051F16D
:1018000020917101822F82958F7090E0029774F081
:1018100080916C0190916D0198878F831986BB86AA
:10182000AA862C87CE0107960E94FB0886E0F80165
:10183000ACE6B1E001900D928A95E1F70E94CC0AE6
:101840000E94BE0A0AC05E1711F1C8010E94620917
:1018500081112CC0C8010E94FB08FF24F394D1C061
:10186000282F207F81F77A2DB98AA88A6E2D898941
:101870000E946A098CE691E00E94FB0886E0D6018E
:101880001D928A95E9F70E94BE0AF12CBAC049134D
:10189000DCCFE110DACFF8018583C8010E94FB0894
:1018A00086E0D6011D928A95E9F7ABC0EE2091F251
:1018B00020917101822F82958F7090E002970CF435
:1018C000B5CF80916C0190916D019A8389831B82C1
:1018D000BD82AC822E83CE010196A6CF621773071C
:1018E00008F044C0FE2CEE2009F4B4CF5E1330C0E3
:1018F00049132EC02091710120FD21C0822F8295B5
:101900008F70482F50E041155105C9F0F80125832B
:101910004F30510541F08F5F982F9295907F822F25
:101920008F70892B8583C8010E94FB0886E0F8012F
:10193000ACE6B1E001900D928A95E1F73CC086E0FB
:10194000F801ACE6B1E001900D928A95E1F759C03B
:10195000C8010E946209811169CF80917101816083
:1019600080937101C8010E94FB084BC07A2DB98A8F
:10197000A88A6E2D89890E946A0986E0D6011D9287
:101980008A95E9F718C0EE2009F464CFC8010E94D7
:101990006209F82E882309F45DCF86E0F801ACE6F1
:1019A000B1E001900D928A95E1F78CE691E00E94FA
:1019B000BF050E94CC0A0E94BE0A23C04D875E87E5
:1019C0008D859E850E946F0A292F22952F702230C7
:1019D00028F49F7039F0811105C00BC0243028F421
:1019E0009F7049F4805E883020F0C8010E94FB0897
:1019F0009F2CF92C06C0D80115969C91907F91F7E9
:101A0000F8CF8F2D61960FB6F894DEBF0FBECDBF15
:101A1000DF91CF911F910F91FF90EF90DF90CF90CA
:101A2000BF90AF909F9008951F93CF93DF93CDB752
:101A3000DEB72C970FB6F894DEBF0FBECDBF4F8335
:101A4000588769877A878B879C87CE0107960E9483
:101A5000440B8823D1F09F8188852A853B85232BE1
:101A600031F08F3F31F481E09F3F19F403C081E0F2
:101A700001C080E080FD47C04F81588569857A8527
:101A80008B859C850E9479093EC086E0FE013796D1
:101A9000DE01119601900D928A95E1F7FF81E885AC
:101AA0006A857B856115710531F0EF3F31F481E086
:101AB000FF3F19F403C081E001C080E080FD23C036
:101AC00020913B0130E0C901019687709927409130
:101AD0003A0150E084179507F1F1F983EA837D8399
:101AE0006C8396E0929FD001939FB00D1124A45C6B
:101AF000BE4FFE01319601900D929A95E1F78093C9
:101B00003B010E949D0A16E080913A0190913B01B1
:101B1000891771F1189FC0011124845C9E4F0E94A7
:101B2000440B882329F1E0913A011E9FF001112412
:101B3000E45CFE4F40815181628173818481958193
:101B40000E94790980913A0190E001968770992767
:101B500080933A01D9CF0E94430910923B01109221
:101B60003A01ECE6F1E086E0DF011D928A95E9F7A3
:101B70002C960FB6F894DEBF0FBECDBFDF91CF918C
:101B80001F91089580917201859585958595089599
:101B9000809172018770089590917201977081E031
:101BA00009F480E0089580917D01089590917D0170
:101BB000892B80937D010895809590917D018923E3
:101BC00080937D01089510927D01089590917C018C
:101BD000892B80937C010895809590917C018923C5
:101BE00080937C01089510927C0108958091730187
:101BF000089508950C94F90D0C94FA0D9091A80293
:101C000092FD08C090917301981721F080937301A1
:101C10000C94FC0D089580917301882329F0109293
:101C2000730180E00C94FC0D0895E0916200F09146
:101C3000630080917D018083E0916200F0916300F8
:101C4000908180917C01892B80838091730188230E
:101C500081F0E0916200F09163009081892B808394
:101C600080916200909163000E94D31C81110E94B8
:101C70000B0E80916200909163000C949C1C0C945C
:101C8000F90D9091A80292FD10C098E0899F9001F3
:101C90001124262B209372010E94B90980917201B0
:101CA0008595859585950C943F0E0C94B9091092F5
:101CB000720180E00C943F0E209172018095822386
:101CC00080937201982F977099F430E0482F082E76
:101CD000000C550B2417350759F09091A80292FD7E
:101CE00007C08595859585950E94C4090C94570E6B
:101CF00008959091A80292FB222720F9281769F0F5
:101D000080FB92F99093A8028091A7029091A8027B
:101D10000E94C70E82E00C945C0E08958091A80288
:101D200082FB882780F991E089270C94790E81E065
:101D30000C94790E80E00C94790E6FEF7FEF80E0C9
:101D400090E00C948C2180E090E00E946921893E13
:101D50009E4F11F40C94E21380E0089582E090E02D
:101D60000C94612183E090E00C946121CF9384E096
:101D700090E00E946121C82F82E290E00E946121E0
:101D80002C2F30E0A901582BCA01CF910895CF9391
:101D9000C92F682F84E090E00E946F216C2F82E2AF
:101DA00090E0CF910C946F21AB01BC018FE090E0EB
:101DB0000C948021AB01BC0183E190E00C94802164
:101DC00060E070E0CB010C94DA0E60E070E0CB01D3
:101DD0000E94D40E0C94E00E69EE7EEF80E090E05D
:101DE0000E948C2160E082E090E00E946F2160E020
:101DF00083E090E00E946F211092390160E084E05E
:101E000090E00E946F2160E082E290E00E946F21EA
:101E100060E085E090E00E946F2160E086E090E065
:101E20000E946F216FEF87E090E00E946F2140E0F9
:101E300050E0BA0188E090E00E94802160E08DE0EF
:101E400090E00E946F2140E050E0BA0188E190E00C
:101E50000E94802160E087E190E00E946F2140E0D5
:101E600050E0BA018CE190E00E94802160E070E0D7
:101E700080E290E00E948C2140E050E0BA0188E1CD
:101E800090E00E94802180E00E94FB130E942E14AB
:101E90000C94E50E0C94EC0E682F8EE090E00C9400
:101EA0006F210E945E1D6093920170939301809355
:101EB00094019093950160938E0170938F018093AC
:101EC00090019093910108950E945E1D609392018C
:101ED00070939301809394019093950160938A018C
:101EE00070938B0180938C0190938D01089584B73A
:101EF000806884BF84B7806884BF089581E00895B6
:101F00000C947E0F08950C94820F0C94820F0C9405
:101F1000850F0C94820F0C94890F0C94820F0E94F1
:101F2000770F8FE392E10E94861C0E948D0F0C9424
:101F30008B0F0E94830F0C94820F0E9459120C94F5
:101F400057050E944B1D0E943D140E9434130E94AD
:101F50009D0F80E00E9475150E94201A0C94870F37
:101F60005F926F927F928F929F92AF92BF92CF9229
:101F7000DF92EF92FF920F931F93CF93DF93CDB732
:101F8000DEB72A970FB6F894DEBF0FBECDBF0E9412
:101F90004913C82E81110E94510F3EE7832E31E074
:101FA000932E00E010E0502E802F0E9473125C01EF
:101FB000F401619071904F016826792661147104D3
:101FC000B1F40F5F1F4F0630110569F78FEF89835A
:101FD0008A831B820E94521D8160782F9D838C838F
:101FE00049815A816B818D810E9475053AC080912B
:101FF000960181FD0E947C12D12CEE24E394F12CF9
:10200000C3018E219F21892B29F10E94800F8823F3
:10201000A9F0DE825F82AE20BF2081E0AB2809F408
:1020200080E088870E94521D8160782F9A87898777
:102030004E815F8168858A850E947505000F111F9A
:10204000F801E258FE4F80819181E826F926F1825D
:10205000E08207C0D394EE0CFF1CFFE0DF12D0CF6C
:10206000B0CF81E0C11001C080E02A960FB6F8948D
:10207000DEBF0FBECDBFDF91CF911F910F91FF90BB
:10208000EF90DF90CF90BF90AF909F908F907F9018
:102090006F905F900895CF93DF930E94B00FD82F79
:1020A0000E94391AC82F81110E94640F0E941917CB
:1020B000D11101C0C1110E94D615DF91CF910C94AE
:1020C0006A05CF93DF930E946811EC01811522E528
:1020D0009207E8F5811531E5930708F0B6C0883E10
:1020E000910528F5803E910508F0E9C0883A9105F0
:1020F00070F4853A910508F07AC08130910509F4B1
:1021000073C008F4D9C0049708F0D9C0D5C08F3B7C
:10211000910508F0D1C0C85AD0E0CC0FDD1FC655DC
:10212000DF4F0990D881C02DCE019464C9C08115BC
:1021300040E5940708F069C0811550E4950708F060
:1021400060C09A9581159F4108F4B9C0B5C081154A
:1021500036E5930728F5811545E5940708F092C008
:10216000811554E5950708F087C0AC0143705527E9
:10217000282F26952695C115D34508F06CC081E01F
:1021800090E002C0880F991F4A95E2F740E2249F31
:1021900090011124EC01C22BD32BCE019C6890C07E
:1021A00081152AE5920780F4811539E5930708F037
:1021B00072C0811548E5940708F47EC0D82FCC275B
:1021C000CE01806F906A7CC090568115904208F0D5
:1021D00073C08D2F8F710E94FC11DD27D0628F712B
:1021E000AE01582BCA016CC081E090E069C0C55AAD
:1021F000D0E0C852DF4F8881C82FD0E0CE01906474
:102200005FC0DF70CE01906A5BC074E096958795E1
:102210007A95E1F7282F23703C2F337081E090E00E
:1022200002C0880F991F3A95E2F79C68AC01522BC7
:102230009A019C2F9F709695969550E2959FE0018C
:102240001124C9018C2B9D2B3BC0D82FCC27CE014C
:10225000816F906A35C081E090E002C0880F991FBD
:102260004A95E2F750E2259F90011124EC01C22B20
:10227000D32BCE019A6824C0D82FCC27CE01846FEF
:10228000906A1EC00E94FC118F7190E0D82FCC275D
:10229000CE01906215C08F700E94FC1194E0D6951B
:1022A000C7959A95E1F7CF70D0E0DC2FCC27D069A5
:1022B0009E01282BC90104C080E090E001C0CE013E
:1022C000DF91CF9108950E9455190E9461100895E1
:1022D0008238910569F1B0F48133910509F46DC03C
:1022E00048F48932910509F463C08A32910509F4F2
:1022F00069C008958533910509F455C08933910566
:10230000B9F00895833E910569F138F4803E910556
:10231000B1F0823E910509F10895863E9105A9F13B
:10232000873E9105B9F1843E910509F064C023C050
:102330002091A70220FD4FC021FD4DC0089580913E
:10234000A70280FD44C08091A80280FF44C0809114
:10235000A70284FD42C083EE4DC08091A70282FF98
:1023600038C0F5CF8091A70282FD33C08091A802CA
:1023700080FD31C0ECCF8091A80281FF32C08091F6
:10238000A70284FD2AC087EE35C08091A70283FF93
:1023900026C0F5CF8091A70283FD21C08091A802BD
:1023A00081FD1FC0ECCF8091A70285FD1CC01DC020
:1023B0008091A70285FD19C016C08091A70286FDF5
:1023C00016C017C08091A70286FD13C010C089E314
:1023D00011C082EE0FC080EE0DC080E00BC086EE13
:1023E00009C084EE07C089E205C085E303C08AE224
:1023F00001C081E390E008959091A70292FF0DC083
:10240000282F2871283019F4877F846006C0282F70
:102410002471243011F48B7F886093FF0DC0282F26
:102420002871283119F4877E846106C0282F247111
:10243000243111F48B7E88612091A80220FF0DC009
:10244000382F3871383019F4877F816006C0382FF3
:102450003171313011F48E7F886021FF0DC0282F3B
:102460002871283119F4877E816106C0282F2171D7
:10247000213111F48E7E886194FD877E089580E07D
:1024800008950C949D0E0E9449138FE39CE90197D7
:10249000F1F700C000000E94491380E00E9473120F
:1024A00080FF04C00E9441120C949F1D08950C945B
:1024B00043120E94A30E811102C00E944A0F0E9483
:1024C000AE0E809396010E94B60E9093A802809360
:1024D000A7020E9457120E94B20E0E949509809195
:1024E00038010C94A609E82FF0E0EE0FFF1FEB5423
:1024F000FD4F808191810895089580EA8A95F1F7D2
:10250000089500C008950C947D1208950C948512CE
:102510000C9486120C9485120C948A12F894E82F6D
:10252000E295EF70F0E031A9282F2F7081E090E064
:1025300001C0880F2A95EAF7982F9095932391ABC5
:1025400092A9892B82AB789408950F931F93CF9310
:10255000DF93CAEED0E089918F3F11F00E948E1276
:1025600080E0C03FD807B9F7CBEDD0E00AEE10E02D
:1025700089918F3F11F00E948E120C171D07C1F731
:10258000DF91CF911F910F910895BF92CF92DF926B
:10259000EF92FF920F931F93CF93DF938C01C62F7F
:1025A000D0E0CE0186519F4F6C01FC0190819F3F8E
:1025B00009F450C0B62EF894E92FE295EF70F0E0E0
:1025C00081A99F7021E030E001C0220F9A95EAF7BF
:1025D000822B81AB82A92095282322AB78940E947C
:1025E0008112EBEDF0E04AEE50E021E030E0E12C2A
:1025F000F12C61916F3F89F0A62FA295AF70B0E0EA
:10260000D0968C9190E06F7002C0959587956A95F1
:10261000E2F780FD02C0C90102C080E090E0E82A34
:10262000F92A220F331F4E175F0719F7F601808131
:102630008F3F11F00E948E1261E0E114F10409F461
:1026400060E08B2D0E948312CC0FDD1FC00FD11FC5
:10265000F982E882DF91CF911F910F91FF90EF9067
:10266000DF90CF90BF9008950E94A5128CE0E5EB1B
:10267000F2E0DF01982F1D929A95E9F7E9EAF2E07E
:10268000DF011D928A95E9F786E00E9494130C946D
:10269000FC03FF920F931F93CF93DF93CDB7DEB769
:1026A0002C970FB6F894DEBF0FBECDBF8E010F5F23
:1026B0001F4F8CE0F80111928A95E9F7F12C6F2DEC
:1026C000C8010E94C512F394F6E0FF12F8CF4CE067
:1026D00050E0B80189EA92E00E945421FF24F3946B
:1026E000009709F4F12C892B41F08CE0F801A9EA5C
:1026F000B2E001900D928A95E1F72F2D46E065EB4F
:1027000072E089EA92E00E9495130E94FE038F2DE9
:102710002C960FB6F894DEBF0FBECDBFDF91CF91E0
:102720001F910F91FF9008950895FF920F931F93AB
:10273000CF93DF93F82E092F162FD72FC42F2223E4
:1027400049F081E0809399010E94521D9093980175
:1027500080939701809199018823D9F08091970106
:10276000909198010E946A1D059798F0EF2DF02F27
:10277000A12FBD2F80E090E04C2F50E084179507EB
:1027800034F4219131912D933D930196F7CF10921E
:102790009901DF91CF911F910F91FF9008950E94B1
:1027A000B91D0E94A10F0C94CA1D0E94401D0E94D9
:1027B000B21D0E948F0F0E94CF130E94D81D0E944D
:1027C000990FFBCF83E290E00E946121823281F475
:1027D00084E290E00E946121843051F485E290E02F
:1027E0000E94612191E0873109F090E0892F01C0BA
:1027F00080E081700895CF93C82F811102C06FEFE0
:1028000001C062E283E290E00E946F21C11102C028
:102810006FEF01C064E084E290E00E946F21C1117B
:1028200002C06FEF01C067E185E290E0CF910C94A8
:102830006F21089586E290E00E946121682F70E088
:1028400080E090E008950895CF93C62F0E9423144E
:102850006C2F86E290E0CF910C946F2180E00E9473
:10286000FB1360E070E0CB010E9424140E94D0189A
:102870000E94AF1981E00C94FB130E9419140E946E
:102880001A140E9423140E94E213811102C00C94B6
:102890002E140895CF93FB01C281CC23E9F09C0153
:1028A00022513F452031310520F482510E94BF1949
:1028B0000CC08031FFE59F0751F481E00E94B90907
:1028C00043E062E081E00E94F303C0E018C0813180
:1028D0009F45A9F482E0F2CF8031EFE59E0711F425
:1028E00081E004C081319F4549F482E00E94C4091F
:1028F00043E062E081E00E94F30301C0C1E08C2F5D
:10290000CF9108952FEFFC0120830895EF92FF925D
:102910000F931F93CF93DF93EC01062FE8818E2F47
:1029200090E0FC013197E331F10508F091C0EA5CD9
:10293000FF4F0C944721198289E04DC08981823074
:1029400039F0833061F0813029F50E945E1D02C0AC
:102950000E941A149A838B837C836D837BC07E01D3
:1029600010E0812F0E947312F701928383831F5F0F
:10297000F2E0EF0EF11C1630A1F76CC089818230B5
:1029800049F46A817B818C819D810E944D210E9446
:10299000241460C0602FCE010E9482145BC04B8162
:1029A0006A8189810E94A2189C838D8353C02C81E7
:1029B0003D813227232732274B816A8189810E94FA
:1029C000BB1848C00E94D01845C00E94621924C09C
:1029D0000E94641999838A833DC06B8170E089816C
:1029E0009A81AE014C5F5F4F9827892798270E94F4
:1029F000671930C06B8170E089819A81AE014C5FAC
:102A00005F4F9827892798270E948C1923C00E941E
:102A1000AF1920C00E948F1889831CC06B8170E0A1
:102A200089819A81AE014C5F5F4F9827892798274B
:102A30000E940F190FC06B8170E089819A81AE01ED
:102A40004C5F5F4F9827892798270E94331902C04F
:102A50008FEF8883602FCE01DF91CF911F910F916F
:102A6000FF90EF900C94C21EEF92FF920F931F9372
:102A7000CF93DF93EC017B0164E670E088E70E946E
:102A80008E1B8C01EC0EFD1ECE15DF0561F017FDCF
:102A90000AC0FE01849164E670E00E94051C8C016E
:102AA0002196892B89F30E94831CC801DF91CF9165
:102AB0001F910F91FF90EF90089508950C945D156C
:102AC000E1ECF2E080E094E0DF019C011D922150F6
:102AD0003040E1F7F093C606E093C5068FEF9FEF15
:102AE0009093E0018093DF0108950E945E150E949B
:102AF0005D158093DB0180FD02C080E401C080E8A9
:102B00008093DA010E947E1B6DE070E081EC92E020
:102B10000E943415892B11F080E008958091DB012B
:102B200063E070E081FD03C08EEB92E002C08BEBAE
:102B300092E00E943415892B79F76DE070E08EEAFF
:102B400092E00E943415892B39F70E945E1DDC014A
:102B5000CB01805A9541AF4FBF4F8093C1069093F0
:102B6000C206A093C306B093C4060E94601581E01C
:102B70008093DE018093DD011092DC0108952091A5
:102B8000DA0136E0839FC0011124629F800D911D00
:102B90001124811524E0920714F080E090E08F5317
:102BA0009D4F9093C6068093C50608958091DE01DF
:102BB0008823F9F00E945E1DDC01CB01805A95410B
:102BC000AF4FBF4F8093C1069093C206A093C30638
:102BD000B093C4068091DD0181110BC062E070E00A
:102BE0008CEA92E00E943415892B19F481E08093DD
:102BF000DD018091DD0108956F927F928F929F9207
:102C0000AF92BF92CF92DF92EF92FF920F931F93FA
:102C1000CF93DF938091DE01882309F4DDC080919A
:102C2000DF019091E001009709F4D6C02091DC010A
:102C30002111D2C061E070E0022F10E03B01022EB2
:102C400002C0660C771C0A94E2F7AC0146215721BA
:102C5000452B11F42F5FF0CF3091DB01C80156E016
:102C6000880F991F5A95E1F730FD0FC0109266004A
:102C700046E0969587954A95E1F7809369008FE342
:102C80008093670010926A0016C0880F892F881FF2
:102C9000990B9195880F880F880F80936600229575
:102CA000220F220F207420936900895F80936700B0
:102CB00087E080936A0024E630E047E050E064E675
:102CC00070E088E70E94311C892B09F085C0809153
:102CD000DB0180FD23C0A80196E0440F551F9A95A3
:102CE000E1F74F535D4F04E610E020E430E060E48C
:102CF00088E70E94571C892B09F06EC00E94D615E8
:102D0000E301C095D0958091DF019091E001C82347
:102D1000D923D093E001C093DF015EC080E4EAE9EB
:102D2000F1E0DF011D928A95E9F7A80186E0440FE2
:102D3000551F8A95E1F7A8EFB0E000EF10E0992465
:102D400093942D91E80189918E01BA01680F711D4C
:102D50006F537D4F30E026563E4FF90197E07F01DB
:102D6000E21AF30AA92C01C0AA0CEA94EAF77B0143
:102D7000B12CE70189917E018A21892E8B18D82DEB
:102D8000D770CD2E0D2E000CDD08C82F01C0CC0F42
:102D9000DA95EAF7D194C194D108D7E0CD22DD24A9
:102DA00001C08695CA94EAF78C2BD0808D29808348
:102DB000B39488E0B812DDCF915031969F3F79F6F9
:102DC000C1E0A030BC0709F0BCCF04E610E020E46D
:102DD00030E04AE951E08BCFDF91CF911F910F9105
:102DE000FF90EF90DF90CF90BF90AF909F908F902B
:102DF0007F906F9008958091DE019091DD0188238E
:102E000089F0992369F062E070E08AEA92E00E941A
:102E10003415892B19F08091DD0108951092DD01A0
:102E20009091DD0181E08927089581E008950C9457
:102E300015170F931F938091DE01882329F160E01D
:102E400080E00E94BF150E9417170E94FC15809118
:102E5000DD018823C9F00E945E1D0091C10610911A
:102E6000C2062091C3063091C406DC01CB01801B51
:102E7000910BA20BB30B8F3F9F4FAF4FBF4720F477
:102E80001F910F910C94FB161F910F910895CF93F2
:102E9000DF93EC01FB018281882309F43CC1C3303C
:102EA000FDE5DF0760F4CA3F9CE5D90788F49E0181
:102EB00022503C452431310508F02EC109C0C136ED
:102EC000EDE5DE0729F0C53AFDE5DF0709F024C18D
:102ED0000E94B60E9093A8028093A702C1318CE5A0
:102EE000D80709F4C6C008F042C0C930ECE5DE07D7
:102EF00009F49BC000F5C5308CE5D80709F485C0FE
:102F000078F4C330ECE5DE0709F478C008F07AC045
:102F1000C230DC4509F0F5C08091A7028160EFC0A6
:102F2000C7309CE5D90709F478C008F07AC08091D1
:102F3000A7028061E4C0CD30FCE5DF0709F487C05B
:102F400058F4CB309CE5D90709F479C008F07BC070
:102F50008091A70288606FC0CF30FCE5DF0709F4DD
:102F600080C008F082C08091A702877FC8C0CD3F93
:102F70009CE5D90709F471C000F5C531FCE5DF0710
:102F800009F485C068F4C3319CE5D90709F475C01C
:102F900008F095C00E9443098091A7028F77AFC0C7
:102FA000CB3FFCE5DF07A9F108F054C0CA3FDC4580
:102FB00009F0A7C08091A80240C0C130EDE5DE074E
:102FC00009F489C058F4CF3F8CE5D80709F45AC0FA
:102FD00008F069C08091A80282602FC0C136EDE57B
:102FE000DE0709F47CC0C53AFDE5DF0709F481C0BE
:102FF000C230DD4509F085C080E06EC08091A70237
:1030000082607DC08091A70216C08091A70288606F
:1030100076C08091A80282604FC08091A702806232
:103020006EC08091A70280646AC00E9443098091AB
:10303000A702806864C0846062C081603DC08091E6
:10304000A7028E7F5CC08091A7028D7F58C08091BF
:10305000A70216C08091A80218C08091A8028D7F97
:103060002BC08091A7028F7E4AC08091A7028F7DDE
:1030700046C08091A7028F7B42C08091A702877FC4
:103080008B7F3DC08091A8028D7F8E7F15C080917F
:10309000A70282FB222720F991E0922790FB82F978
:1030A00090FB83F92CC08091A802982F9095917085
:1030B0008E7F892B90FB81F98093A80222C00E9409
:1030C00043098091A70287FB222720F991E09227EC
:1030D00090FB87F914C081E00E944C0F12C08091D0
:1030E000A70284FB222720F991E0922790FB84F924
:1030F00006C08091A702982F909590FB80F980934D
:10310000A7028091A7029091A8020E94C70E0E9478
:10311000430980E001C081E0DF91CF91089584E010
:10312000089550E0440F551F2EE1629F400D511D40
:1031300011249A0164EB869F200D311D1124C901D1
:10314000879608950F931F93CF93DF930E94911852
:103150008C010E946121C82FD0E0DC2FCC27C80150
:1031600001960E9461219E01282BC901DF91CF9118
:103170001F910F9108950F931F93CF93DF93122FF9
:10318000032F0E949118EC01602F0E946F21612F84
:10319000CE010196DF91CF911F910F910C946F2179
:1031A000AF92BF92CF92DF92EF92FF920F931F9355
:1031B000CF93DF93A12CE12CF12CB12C00E010E097
:1031C000C0E0D0E06701C00ED11EFE01EE0FFF1F70
:1031D000EC0DFD1DEE56FF4F259134914C2F6B2DBC
:1031E0008A2D0E94BB182196CF30D10571F7025E5F
:1031F0001F4FB39486E0B812E3CF84EBE80EF11CC6
:10320000A39484E0A812D9CFDF91CF911F910F91A1
:10321000FF90EF90DF90CF90BF90AF900895EF9226
:10322000FF920F931F93CF93DF93EA017A01E60E8B
:10323000F71E8C01C8018796CE15DF0569F0003DA9
:1032400022E0120720F40E946121888301C01882C5
:1032500021960F5F1F4FEECFDF91CF911F910F91FE
:10326000FF90EF900895EF92FF920F931F93CF93EB
:10327000DF93EA017A01E60EF71E8C01C8018796FA
:10328000CE15DF0559F0003D22E0120718F46881E1
:103290000E946F2121960F5F1F4FF0CFDF91CF91DA
:1032A0001F910F91FF90EF900895462F843038F4CE
:1032B000763028F46F3018F4672F0C94A21880E051
:1032C00090E0089580E1089589E091E00895EF92FB
:1032D000FF920F931F93CF93DF93EA017A01E60EDB
:1032E000F71E8C01C80189509D4FCE15DF0569F08E
:1032F000093021E0120720F40E946121888301C077
:10330000188221960F5F1F4FEDCFDF91CF911F9154
:103310000F91FF90EF900895EF92FF920F931F93FC
:10332000CF93DF93EA017A01E60EF71E8C01C80104
:1033300089509D4FCE15DF0559F0093021E0120765
:1033400018F468810E946F2121960F5F1F4FEFCF05
:10335000DF91CF911F910F91FF90EF900895CF9340
:10336000DF93C7EFD2E060E0CE010E946F2121968B
:10337000C11584E0D807B9F7DF91CF910895DF92A6
:10338000EF92FF920F931F93CF93DF9300D000D063
:10339000CDB7DEB7F82E8FE08F15E8F18FEF93E011
:1033A0000E946121811137C007EF12E0FF2069F010
:1033B000011584E0180779F1C8010E94612181118B
:1033C00001C0FA940F5F1F4FF1CF19821A821B823E
:1033D0001C82DD24D39478018FEFE81AF80AC80123
:1033E0000E94612189831A828823A9F09FEF980F98
:1033F000933058F48A83D9820E5F1F4FC7010E9411
:1034000061218B83882339F07801CE0101960E94D7
:1034100042058701E0CF0F900F900F900F90DF9142
:10342000CF911F910F91FF90EF90DF9008958FE85B
:1034300091E00197F1F700C0000008950C94780323
:10344000A298AA9A8F98979A0E94171A83B382FB20
:10345000882780F920B330E0220F232F221F330B5F
:10346000232B11F490E001C092E0892B8093E301BB
:103470000895E091E301EE0FEE0FE093E30123B333
:1034800022FB882780F990E020B330E0220F232F21
:10349000221F330B2115310511F022E030E0822B81
:1034A000932B8E2B8093E3018F70E82FF0E0E05098
:1034B000FF4F90818091E201890F8093E201843077
:1034C0005CF08091E1018F5F8093E10161E080E039
:1034D0000E941E1A21E001C020E08091E2018D3F90
:1034E00054F48091E10181508093E10160E080E03B
:1034F0000E941E1A21E08091E201082E000C990B17
:1035000064E070E00E9433218093E201822F0895ED
:10351000CF93DF9386319C4541F5EB010E94D30D9B
:10352000982F8A812091620030916300882379F07E
:103530009A7A81E009F480E08093E401911102C05D
:1035400069E201C065E3C9010E94151D0AC08091AE
:10355000E401811102C069E201C065E3C9010E9472
:10356000171D0E94150E80E001C081E0DF91CF9110
:1035700008950F931F93CF93DF93C42FD22FFC0195
:1035800082818823C9F04093E7010E94521D9093E5
:10359000E6018093E50180E28C0F883008F057C087
:1035A000C77081E001C0880FCA95EAF7DF91CF911B
:1035B0001F910F910C94E6068091E701481330C0EB
:1035C0008091E5019091E6010E946A1D883C910579
:1035D00038F510E21D0FCD17B9F080E28C0F88305E
:1035E00040F4C77081E001C0880FCA95EAF70E94D5
:1035F000ED06183028F581E09D2F977001C0880FE7
:103600009A95EAF70E94E606802F0E94DD061830A0
:10361000F0F4D77081E001C0880FDA95EAF70AC0AC
:1036200080E28C0F883098F4C77081E001C0880F69
:10363000CA95EAF7DF91CF911F910F910C94ED0697
:10364000802FDF91CF911F910F910C94DD06DF91B8
:10365000CF911F910F9108950F939C01CB01233FB0
:103660004CE5340731F188F4283DFCE53F07D9F0FB
:10367000293D4CE5340779F1273D3C45A9F506E2A3
:1036800021EE41EE67ED7CE52BC0253FFCE53F07D1
:10369000E1F0A8F0263F3C4539F507E225EE46EE7D
:1036A00066EF7CE51DC007E225EE45EE68ED7CE5A2
:1036B00017C006E221EE40EE63EF7CE511C007E2A1
:1036C00025EE44EE64EF7CE50BC006E221EE42EE0F
:1036D00065EF7CE505C008E221E045EE69ED7CE59B
:1036E0000E94B91A80E008C0FC018281882319F089
:1036F0001092E70101C081E00F91089511B88CE0AC
:1037000080B985B3836085BB86B7846086BF86B782
:10371000816086BF86B7806486BF08959F92AF920E
:10372000BF92CF92DF92EF92FF920F931F93CF93AE
:10373000DF93B82EEB010E94521D6C01C431D105FC
:1037400058F0CF3F8FEFD80759F0CE0164E170E019
:103750000E941F217B0107C0EE24E394F12C03C0DB
:1037600025E0E22EF12C84E8A82E94EA992E16BECC
:1037700096BE0E94521D8C0106B607FC08C00E942E
:10378000521D801B910B8E159F05B0F324C081B193
:10379000887F883039F081B1887F803119F00FEF50
:1037A0001FEF1BC0B3B8A6BE0E94521D8C0106B607
:1037B00007FC08C00E94521D801B910B8E159F05AF
:1037C000B0F309C081B1887F883111F0803439F7B6
:1037D00000E010E00DC00EEF1FEFCF3F8FEFD807D6
:1037E00031F2C6010E946A1D8C179D0708F4BFCFF5
:1037F000C801DF91CF911F910F91FF90EF90DF9063
:10380000CF90BF90AF909F9008950F931F93CF9349
:10381000DF93EB0183B984E886BF0E94521D8C01BF
:1038200006B607FC0EC0CF3F8FEFD807C9F30E9442
:10383000521D801B910B8C179D0790F38EEF9FEF0D
:103840000BC021B1287F81E090E0283211F480E0A4
:1038500090E0919581959109DF91CF911F910F9102
:103860000895CF92DF92EF92FF920F931F93CF9321
:10387000DF936B018A017901B9010E948E1BE60179
:103880000C0D1D1DC017D10759F424E926BFDF9187
:10389000CF911F910F91FF90EF90DF90CF900895FF
:1038A00097FDF3CFB70189910E94051CEBCFCF9212
:1038B000DF92EF92FF920F931F93CF93DF93C62F68
:1038C0006A017901B8010E948E1B97FD11C0B801F1
:1038D0008C2F0E94051CE601EC0CFD1CCE15DF05AB
:1038E00039F097FD05C0B80189910E94051CF6CFFB
:1038F00024E926BFDF91CF911F910F91FF90EF90A8
:10390000DF90CF90089584E986BF089590931101C8
:103910008093100108959093ED018093EC01089538
:10392000E091EC01F091ED01309721F00190F081F0
:10393000E02D099480E00895E091EC01F091ED0113
:10394000309721F00280F381E02D099408952091B1
:10395000EA013091EB012817390771F09093EB01E0
:103960008093EA01E091EC01F091ED01309721F0B4
:103970000680F781E02D099408952091E8013091A7
:10398000E9012817390771F09093E9018093E80164
:10399000E091EC01F091ED01309721F00084F18588
:1039A000E02D09940895FC01329697E080E0915053
:1039B00029F021912223D9F38F5FF9CF089566234F
:1039C00049F0FC01329608962191621729F0E81718
:1039D000F907D1F780E0089581E008959C01FC018A
:1039E00032969FEF80E04191461789F09F3F19F48E
:1039F000411101C0982F8F5F8630A9F79F3F39F0A2
:103A0000F901E90FF11D97FDFA9562830895089574
:103A10009C012A5F3F4FFC014281461301C0128284
:103A2000019682179307B9F708950C94EE1C0C9435
:103A3000081D029626E0FC0111922A95E9F70895E7
:103A400008950C94201D0C94211D0C94201D0C94A1
:103A5000201D0C94201DCF930E94271D0E94491306
:103A60000E94251DC0E08C2F0E947312892B29F41F
:103A7000CF5FC630C1F780E001C081E0CF910895EB
:103A800008958091F00181110C94690408950E94B9
:103A900043090C946F048BE083BF8AEF8CBF82E0F4
:103AA00089BF08952FB7F8948091C7069091C806F2
:103AB000A091C906B091CA062FBF08952FB7F894F8
:103AC0006091C7067091C8068091C9069091CA0698
:103AD0002FBF08959C014FB7F8948091C70690912D
:103AE000C806A091C906B091CA064FBF821B930BAE
:103AF000089578941F920F920FB60F9211248F930E
:103B00009F93AF93BF938091C7069091C806A091F1
:103B1000C906B091CA060196A11DB11D8093C706C2
:103B20009093C806A093C906B093CA06BF91AF91FF
:103B30009F918F910F900FBE0F901F90189598E056
:103B400088E10FB6F894A89581BD0FBE91BDA895E8
:103B5000F894D8E0CEE528E3299320E0299314BE19
:103B6000FFCF08950E94521D9093EF018093EE01C4
:103B700008950E9404218B9A80E0815041F0A8951D
:103B8000EFE9FFE03197F1F700C00000F6CF8B9826
:103B9000789408950E94FC1E0E948B1C2FEF80E7F2
:103BA00092E0215080409040E1F700C0000008956D
:103BB0008091F206882389F01092F2060E94521D2D
:103BC0009093EF018093EE018091F0018823D1F171
:103BD0001092F0010E94471D11C08091F0018111E7
:103BE00011C08091EE019091EF010E946A1D06972D
:103BF00028F081E08093F0010E94411D8091F00146
:103C0000882301F10E94411D0E942B1D882391F100
:103C1000F89421B3939A822F8C6081BB92B38CE08D
:103C2000982792BB3FE748E391E0315040409040F5
:103C3000E1F700C0000092B3892782BB21BB9398B3
:103C4000789408950E940D208091F806882329F029
:103C50008091D60684FD0E944B100E94691E0E942E
:103C60000D208091F806882329F08091E20684FDDA
:103C70000C94F01E08958091A602089508959091E5
:103C8000F601981307C02091F4013091F501261731
:103C90003707A9F08093F6017093F5016093F40162
:103CA0008093F1017093F3016093F20180910F070B
:103CB00084FF05C063E081EF91E00C940520089536
:103CC000BC0184E00C943F1EBC0183E00C943F1EB9
:103CD0000895CF93DF93CAE0D0E08091D60684FFA9
:103CE00018C080912302909124029817E1F028E0F7
:103CF000829FC001112468E08B5D9D4F0E940120CE
:103D00008091230290E001968F709927809323027F
:103D10000AC00E940D208FE99FE00197F1F700C0D3
:103D200000002197D1F6DF91CF910895CF93DF93D3
:103D3000EC01A0912402B0E0CD0101968F7099278B
:103D400020912302281779F093E0AA0FBB1F9A95C0
:103D5000E1F7AB5DBD4F98E0FE0101900D929A95A1
:103D6000E1F7809324020E940D200E94691E88E0E2
:103D7000FE01ABE1B2E001900D928A95E1F7DF918F
:103D8000CF9108950F931F93CF93DF93EC0160328F
:103D900011F58C01005E1F4F8091E20684FD03C087
:103DA0000E940D20F9CF68E0CE010E9409202896DC
:103DB0000C171D0789F78091E20684FD03C00E945D
:103DC0000D20F9CF60E080E090E0DF91CF911F916E
:103DD0000F910C940920DF91CF911F910F910895BD
:103DE0008091FA01803239F460E28BEF91E00E9419
:103DF00086141092FA0108958BE690E00895FC0174
:103E0000808180768032A1F58181813061F4848166
:103E10009581892B69F58BE192E09093F40680936C
:103E2000F30688E00895823041F485EA92E09093A9
:103E3000F4068093F30681E008958A3021F48381AB
:103E40008093A50215C0893099F4828193818115F0
:103E5000924081F484819581892B61F481E0809383
:103E6000F901868197819093F8018093F70102C050
:103E700080E008958FEF08952091F7013091F801C7
:103E8000232B71F02091F901213051F4FC01808144
:103E90008093A6021092F8011092F70181E0089534
:103EA0008FEF0895683019F01092FA01089520916B
:103EB000FA01A22FB0E0A931B105B4F7FC01A55079
:103EC000BE4F089631913D93E817F907D9F7285F5F
:103ED0002093FA010895FC0193819330D9F068F49E
:103EE000913081F0923009F068C08EEC92E09093AE
:103EF000F4068093F3068BE50895913251F19232E6
:103F0000E1F15BC089E293E09093F4068093F306BD
:103F100082E1089582818130A1F058F0823009F069
:103F20004CC08BE393E09093F4068093F30686E114
:103F3000089585E693E09093F4068093F30684E079
:103F4000089583E593E09093F4068093F30680E16F
:103F500008958281813049F028F0823071F589E13D
:103F600093E005C080EE92E002C089EF92E090936A
:103F7000F4068093F30689E0089584819581813069
:103F8000910599F050F00297C1F48BE893E090937B
:103F9000F4068093F30682E308958DEB93E090930B
:103FA000F4068093F30680E4089589E693E0909305
:103FB000F4068093F30682E2089580E008951F934B
:103FC000CF93DF93162FEA01288124FF05C03981A2
:103FD00028E82327298302C02AE52883212FFC0112
:103FE000CE010296DC0131913D9321501216DCF393
:103FF000612F0E9433021C5F1883DF91CF911F91C4
:10400000089546ED56E00C94DF1F4FE057E00C9406
:10401000DF1F42EE56E00C94DF1FCF93DF936091D9
:10402000F506635067FD93C08091F106CCE0D0E0C7
:10403000C81BD109C750D94F8091F006803120F4B8
:10404000CE010E94521F81C08D3209F06EC06830CF
:1040500009F07BC083EC8093CB068AE580937800DF
:104060001092EF068881807621F0CE010E94FF1E1B
:1040700049C09A811092D4068981811106C010929C
:10408000D50624ED36E082E038C0853019F49093EF
:10409000F60630C08630A1F48B81813041F0823049
:1040A00031F0833021F0813211F0823221F4CE01DF
:1040B0000E946B1F01C080E090E49093EF0622C045
:1040C000883089F0893019F49093F80613C08A304B
:1040D00069F08B3079F48BE48093D70680931007D6
:1040E0008093E30607C028EF36E002C024ED36E0F7
:1040F00081E003C024ED36E080E03093F4062093A5
:10410000F30609C08F3F39F4988197FD8E8190E8BE
:104110009093EF0607C09F81911104C09E8198176C
:1041200008F4892F8093770010C08091EF0687FFF5
:104130000CC0CE010E943C1F8F3F21F48EE1809382
:10414000780003C08111109277001092F5068091DB
:10415000780084FF4CC0809177008F3F09F447C0FE
:10416000C82F893008F0C8E08C1B809377009091AD
:10417000CB0688E889278093CB06CC2359F1809120
:10418000F3069091F4062091EF0626FF12C0ABECE7
:10419000B6E02C2FAC014B5C5640FA01EA0FFB1F36
:1041A000E4911196EC931197215011962111F5CFBE
:1041B00008C0ECECF6E0DC012C2F3D91319321504E
:1041C000E1F701962FEF2C0F820F911D9093F406CB
:1041D0008093F3066C2F8CEC96E00E943302CC5F48
:1041E000CC3019F08FEF80937700C093780084E192
:1041F00090B39C7031F48150D9F71092F60610926A
:10420000EE06DF91CF910895CF93DF9385B7886055
:1042100085BF8BB780688BBFC6EDD6E08BE4898302
:10422000AFE0B7E011968C931197E2EEF6E0818350
:104230008AE588838C938083DF91CF910895AA1BB0
:10424000BB1B51E107C0AA1FBB1FA617B70710F081
:10425000A61BB70B881F991F5A95A9F780959095B3
:10426000BC01CD01089597FB072E16F4009407D0EA
:1042700077FD09D00E941F2107FC05D03EF49095E0
:1042800081959F4F0895709561957F4F0895EE0F2A
:10429000FF1F0590F491E02D09946927962769275F
:1042A0007827872778270895FB01DC0104C08D91CA
:1042B0000190801921F441505040C8F7881B990B98
:1042C0000895E199FECF9FBB8EBBE09A99278DB3ED
:1042D0000895A8E1B0E042E050E00C949421262F2C
:1042E000E199FECF9FBB8EBBE09A01970DB20216FB
:1042F00031F02DBB0FB6F894E29AE19A0FBE089503
:104300000396272F0E9470210E946F21252F0E9463
:104310007021242F0C9470210196272F0E94702168
:104320000C946F21DC01CB01FC01E199FECF06C0AA
:10433000FFBBEEBBE09A31960DB20D92415050405A
:08434000B8F70895F894FFCFCF
:10434800C80074010021003F22000F3B1E961E6822
:104358001E641E601E3E1EFF5AE200E900EA00B518
:1043680000B600B700CD008301CC008A0192019409
:10437800012102230224022502260227022A02B36F
:1043880000B4006F007000818283E200E900EA0057
:10439800B500B600B700CD008301CC008A019201B8
:1043A80094012102230224022502260227022A025E
:1043B800B300B4006F0070008182839192936061B2
:1043C8006263640001050635343336969794379551
:1043D8000008101820283038383028201810080015
:1043E80000FF0100010000FFFF0000010001FF00C5
:00000001FF
